:10000000021E4F2001FDD2018F9922021504E4FF48
:10001000FE120B47600C0FEF70010E09E970F20A37
:1000200080EF220218FB90001BE0640160030200D5
:10003000FD20963C7F0F12224A20963420961C7B8E
:10004000FF7A3479259000887410F0A37401F07D54
:10005000067C00E4FFFE1213E080E190001B7402B6
:10006000F090002214F01220587FC87E0012223334
:1000700020973D7F0F12224A20973520971D7BFF46
:100080007A34792A9000887410F0A37401F07D0608
:100090007C007F2C7E001213E080E0900030E07F37
:1000A0000070027F01900030EFF09000227401F0A8
:1000B00030CC030205B67F0F12224A30CC03020572
:1000C000B620CC1D7BFF7A3479309000887410F014
:1000D000A37401F07D067C007F5F7E001213E08038
:1000E000E0900011E07F0070027F01900011EFF0BE
:1000F000E4900030F090002204F00205B390001B61
:10010000E06402600302039390002FE06401600347
:100110000201E92096497F0F12224A20964120963B
:100120001D7BFF7A3479629000887410F0A374010B
:10013000F07D067C007F087E001213E080E09000D6
:1001400034E024F6F0900033E034FFF0D3A3E094E1
:1001500032900033E094005006E4F0A37432F020B3
:10016000972E7F0F12224A20972620971D7BFF7A19
:100170003479649000887410F0A37401F07D067CDB
:10018000007F287E001213E080E090002F7402F0C0
:1001900020CC567F0F12224A20CC4E20CC1D7BFF54
:1001A0007A34796B9000887410F0A37401F07D06A6
:1001B0007C007F707E001213E080E0900034E02429
:1001C0000AF0900033E03400F0900037E0FEA3E046
:1001D000FFC3900034E09F900033E09E400BEF247B
:1001E000F6FFEE34FFF0A3EFF090002FE064026022
:1001F000030202CC2096557F0F12224A20964D20F2
:10020000961D7BFF7A3479629000887410F0A37495
:1002100001F07D067C007F087E001213E080E090F4
:100220000038E024F6F0900037E034FFF09000331F
:10023000E0FEA3E0FFD3900038E09F900037E09EFF
:10024000500AEF240AFFE43EF0A3EFF020972E7F40
:100250000F12224A20972620971D7BFF7A3479645B
:100260009000887410F0A37401F07D067C007F2854
:100270007E001213E080E090002F7403F020CC4C3D
:100280007F0F12224A20CC4420CC1D7BFF7A347988
:100290006B9000887410F0A37401F07D067C007FE1
:1002A000707E001213E080E0900038E0240AF090A5
:1002B0000037E03400F0C3A3E094C4900037E0645A
:1002C00080948940077409F0A374C4F090002FE073
:1002D000640360030205B62096377F0F12224A207E
:1002E000962F20961D7BFF7A3479629000887410D7
:1002F000F0A37401F07D067C007F087E001213E0FD
:1003000080E0900040E07F0070027F01900040EFAD
:10031000F020973E7F0F12224A20973620971D7BB0
:10032000FF7A3479649000887410F0A37401F07D32
:10033000067C007F287E001213E080E090002F747E
:1003400001F090001B7403F01220587FC87E001249
:10035000223330CC030205B67F0F12224A30CC0381
:100360000205B620CC1D7BFF7A34796B900088742F
:1003700010F0A37401F07D067C007F707E001213E4
:10038000E080E0900040E07F0070027F019000403C
:10039000EFF02290001BE0640360030205B69000BA
:1003A0002FE06401600302045520963A7F0F122269
:1003B0004A20963220961D7BFF7A3479629000881D
:1003C0007410F0A37401F07D067C007F087E00129B
:1003D00013E080E0900006E014F0E0D394647480B1
:1003E00094804002E4F020972E7F0F12224A20973B
:1003F0002620971D7BFF7A3479649000887410F072
:10040000A37401F07D067C007F287E001213E0803B
:10041000E090002F7402F020CC3B7F0F12224A2084
:10042000CC3320CC1D7BFF7A34796B90008874101C
:10043000F0A37401F07D067C007F707E001213E053
:1004400080E0900006E004F0E0D394637480948030
:1004500040037463F090002FE0640260030204E73D
:100460002096287F0F12224A20962020961D7BFF7F
:100470007A3479629000887410F0A37401F07D06DC
:100480007C007F087E001213E080E020972E7F0F13
:1004900012224A20972620971D7BFF7A3479649098
:1004A00000887410F0A37401F07D067C007F287E24
:1004B000001213E080E090002F7403F020CC287F1E
:1004C0000F12224A20CC2020CC1D7BFF7A34796B7E
:1004D0009000887410F0A37401F07D067C007F709A
:1004E0007E001213E080E090002FE06403600302BE
:1004F00005B620963F7F0F12224A20963720961D80
:100500007BFF7A3479629000887410F0A37401F054
:100510007D067C007F087E001213E080E090001BC7
:100520007401F090002FF01220587FC87E00122234
:1005300033121EDB20973D7F0F12224A2097352071
:10054000971D7BFF7A3479649000887410F0A3744F
:1005500001F07D067C007F287E001213E080E09091
:10056000002F7401F090001B04F01220587FC87E09
:100570000012223320CC3F7F0F12224A20CC37209A
:10058000CC1D7BFF7A34796B9000887410F0A374D3
:1005900001F07D067C007F707E001213E080E09009
:1005A000001B7401F090002FF01220587FC87E00CD
:1005B000122233121EDB2290001BE0640160030252
:1005C00007D390001FE064017BFF70067A33794304
:1005D00080047A3379459000887410F0E4A3F0FD2C
:1005E000FC7F08FE1213E0900009E064017BFF70BD
:1005F000067A33794880047A3379459000887410FC
:10060000F0E4A3F0FDFC7F18FE1213E0900014E06C
:1006100064017BFF70067A33794B80047A33794525
:100620009000887410F0E4A3F0FDFC7F30FE1213FC
:10063000E0900011E064017BFF70067A33794E8010
:10064000047A3379539000887410F0E4A3F0FDFC31
:100650007F58FE1213E090003FE0640170097BFFB9
:100660007A33795802070690003FE0640270097BF4
:10067000FF7A33796902070690003FE0640370084F
:100680007BFF7A33797A807E90003FE064047008C3
:100690007BFF7A33798B806E90003FE064057008B1
:1006A0007BFF7A33799C805E90003FE0640670089F
:1006B0007BFF7A3379AD804E90003FE0640770088D
:1006C0007BFF7A3379BE803E90003FE0640870087B
:1006D0007BFF7A3379CF802E90003FE06409700869
:1006E0007BFF7A3379E0801E90003FE0640A700857
:1006F0007BFF7A3379F1800E90003FE0640B701736
:100700007BFF7A3479029000887410F0E4A3F07DC6
:1007100002FCFFFE1212A17BFF7A3479139000884D
:100720007410F0E4A3F07D04FCFFFE1213E09000CF
:1007300009E06401702790002AE0FEA3E0FFE4FCDA
:10074000FD900083120D1E9000877404F0A37410B6
:10075000F0E4A3F07D047F481219C880187BFF7A6B
:1007600034791D9000887410F0E4A3F07D04FC7FC0
:1007700048FE1213E07BFF7A3479229000887410CF
:10078000F0E4A3F07D04FC7F68FE1213E07BFF7AA7
:100790003479259000887410F0E4A3F07D06FCFF06
:1007A000FE1213E07BFF7A34792A9000887410F0EF
:1007B000E4A3F07D06FC7F2CFE1213E07BFF7A346D
:1007C00079309000887410F0E4A3F07D06FC7F5F20
:1007D000020B4290001BE0640260030209FC9000DF
:1007E0002FE064017BFF7A3479359000887048747B
:1007F00010F0A37401F0E4FDFCFFFE1213E0900082
:1008000033E0FEA3E0FFE4FCFD900083120D1E9098
:1008100000877404F0A37410F0A37401F0E4FD7F6A
:10082000481219C87BFF7A34793F9000887410F021
:10083000A37401F0E480407410F0E4A3F0FDFCFF29
:10084000FE1213E0900033E0FEA3E0FFE4FCFD9015
:100850000083120D1E9000877404F0A37410F0E45E
:10086000A3F0FD7F481219C87BFF7A34793F9000CE
:10087000887410F0E4A3F0FDFC7F68FE1213E09092
:10088000002FE064027BFF7A347943900088705433
:100890007410F0A37401F07D027C00E4FFFE1213DB
:1008A000E0900037E0FEA3E0FFEE3395E0FDFC9022
:1008B0000083120D1E9000877404F0A37410F0A33F
:1008C0007401F07D027F481219C87BFF7A34793FAA
:1008D0009000887410F0A37401F07D027C007F68A2
:1008E0007E00804B7410F0E4A3F07D02FCFFFE124A
:1008F00013E0900037E0FEA3E0FFEE3395E0FDFC4F
:10090000900083120D1E9000877404F0A37410F001
:10091000E4A3F07D027F481219C87BFF7A34793F47
:100920009000887410F0E4A3F07D02FC7F68FE1252
:1009300013E090002FE0640370407BFF7A34794D20
:100940009000887410F0A37401F07D047C00E4FF33
:10095000FE1213E0900040E07BFF70067A34795C71
:1009600080047A34795F9000887410F0A37401F0E9
:100970007D047C007F707E0080387BFF7A34794D67
:100980009000887410F0E4A3F07D04FCFFFE1213C5
:10099000E0900040E07BFF70067A34795C80047A56
:1009A00034795F9000887410F0E4A3F07D04FC7F3C
:1009B00070FE1213E07BFF7A347962900088741025
:1009C000F0E4A3F07D06FC7F08FE1213E07BFF7AC3
:1009D0003479649000887410F0E4A3F07D06FC7F05
:1009E00028FE1213E07BFF7A34796B900088741034
:1009F000F0E4A3F07D06FC7F70020B4290001BE048
:100A000064036003020B4690002FE064017BFF7AD1
:100A100034796D90008870467410F0A37401F0E48E
:100A2000FDFCFFFE1213E0900006E0FFE4FCFDFE7B
:100A3000900083120D1E9000877402F0A37410F0D2
:100A4000A37401F0E4FD7F601219C87BFF7A34794A
:100A50007A9000887410F0A37401F0E4803E741062
:100A6000F0E4A3F0FDFCFFFE1213E0900006E0FFAF
:100A7000E4FCFDFE900083120D1E9000877402F0CE
:100A8000A37410F0E4A3F0FD7F601219C87BFF7A15
:100A900034797A9000887410F0E4A3F0FDFC7F7044
:100AA000FE1213E090002FE064027BFF7A34797D20
:100AB000900088700E7410F0A37401F07D027C0029
:100AC000E480097410F0E4A3F07D02FCFFFE121331
:100AD000E090002FE064037BFF7A34798E900088E9
:100AE000700E7410F0A37401F07D047C00E48009A2
:100AF0007410F0E4A3F07D04FCFFFE1213E07BFF12
:100B00007A3479629000887410F0E4A3F07D06FCDA
:100B10007F08FE1213E07BFF7A34796490008874BA
:100B200010F0E4A3F07D06FC7F28FE1213E07BFFAB
:100B30007A34796B9000887410F0E4A3F07D06FCA1
:100B40007F70FE1213E022BB010689828A83E022B5
:100B50005002E722BBFE02E32289828A83E49322C9
:100B6000BB010CE58229F582E5833AF583E022504A
:100B700006E92582F8E622BBFE06E92582F8E22294
:100B8000E58229F582E5833AF583E49322EF8DF03F
:100B9000A4A8F0CF8CF0A428CE8DF0A42EFE22C203
:100BA000D5EC30E709B2D5E4C39DFDE49CFCEE3002
:100BB000E715B2D5E4C39FFFE49EFE120D67C3E4C0
:100BC0009DFDE49CFC8003120D6730D507C3E49FB4
:100BD000FFE49EFE22C5F0F8A3E028F0C5F0F8E59A
:100BE00082158270021583E038F022A3F8E0C5F088
:100BF00025F0F0E582158270021583E0C838F0E830
:100C000022E88FF0A4CC8BF0A42CFCE98EF0A42C6D
:100C1000FC8AF0EDA42CFCEA8EF0A4CDA8F08BF0B9
:100C2000A42DCC3825F0FDE98FF0A42CCD35F0FCB7
:100C3000EB8EF0A4FEA9F0EB8FF0A4CFC5F02ECD83
:100C400039FEE43CFCEAA42DCE35F0FDE43CFC2268
:100C500075F008758200EF2FFFEE33FECD33CDCC5B
:100C600033CCC58233C5829BED9AEC99E5829840DE
:100C70000CF582EE9BFEED9AFDEC99FC0FD5F0D6BB
:100C8000E4CEFBE4CDFAE4CCF9A88222B800C1B9E5
:100C90000059BA002DEC8BF084CFCECDFCE5F0CB23
:100CA000F97818EF2FFFEE33FEED33FDEC33FCEB5C
:100CB00033FB10D703994004EB99FB0FD8E5E4F917
:100CC000FA227818EF2FFFEE33FEED33FDEC33FC04
:100CD000C933C910D7059BE99A4007EC9BFCE99AF8
:100CE000F90FD8E0E4C9FAE4CCFB2275F010EF2F3D
:100CF000FFEE33FEED33FDCC33CCC833C810D7073D
:100D00009BEC9AE899400AED9BFDEC9AFCE899F877
:100D10000FD5F0DAE4CDFBE4CCFAE4C8F922ECF02C
:100D2000A3EDF0A3EEF0A3EFF022A8828583F0D02C
:100D300083D082120D41120D41120D41120D41E47A
:100D400073E493A3C583C5F0C583C8C582C8F0A367
:100D5000C583C5F0C583C8C582C822A42582F58293
:100D6000E5F03583F58322BC000BBE0029EF8DF042
:100D700084FFADF022E4CCF875F008EF2FFFEE33DE
:100D8000FEEC33FCEE9DEC984005FCEE9DFE0FD58D
:100D9000F0E9E4CEFD22EDF8F5F0EE8420D21CFE61
:100DA000ADF075F008EF2FFFED33FD4007985006CA
:100DB000D5F0F222C398FD0FD5F0EA22F9E09000B9
:100DC00096F090008FEEF0A3EFF0A3ECF0A3EDF01F
:100DD000A3EBF0A3EAF0A3E9F01222BA900099EE97
:100DE000F0A3EFF0E4900097F0A3F0900099E0FEFC
:100DF000A3E0FF900097E0FCA3E0FDC39FEC9E40C2
:100E000003020FBC900093E0FBA3E0FAA3E0F91209
:100E10000B47FF902AF775F022ED120D5BEC75F091
:100E200022A42583F583E4936F6003020FA890004A
:100E300001120B60FF900097A3E0902AF875F02252
:100E4000120D5BEC75F022A42583F583E4936F60AB
:100E500003020FA8900096E06003020F0390008F3A
:100E6000A3E0FFA3A3E0FD1220D7E490009BF09045
:100E7000009BE0FFC39410748094805031900097E1
:100E8000E0FCA3E0902AD775F022120D5BEC75F020
:100E900022A42583F583E5822FF582E43583F5834B
:100EA000E493FF1221A090009BE004F080C1900029
:100EB0008FA3E0FFA3A3E004FD1220D7E490009BE2
:100EC000F090009BE0FFC394107480948040030274
:100ED0000FA8900097E0FCA3E0902AE775F022129B
:100EE0000D5BEC75F022A42583F583E5822FF58256
:100EF000E43583F583E493FF1221A090009BE00486
:100F0000F080BE90008FA3E0FFA3A3E0FD1220D7E6
:100F1000E490009BF090009BE0FFC39410748094D9
:100F2000805032900097E0FCA3E0902AD775F02221
:100F3000120D5BEC75F022A42583F583E5822FF575
:100F400082E43583F583E493F4FF1221A090009BA3
:100F5000E004F080C090008FA3E0FFA3A3E004FDB5
:100F60001220D7E490009BF090009BE0FFC3941008
:100F7000748094805032900097E0FCA3E0902AE7C0
:100F800075F022120D5BEC75F022A42583F583E544
:100F9000822FF582E43583F583E493F4FF1221A0D8
:100FA00090009BE004F080C0900098E004F06003A3
:100FB000020DEB900097E004F0020DEB2290003759
:100FC000E0FEA3E0FFD390002BE09F90002AE09E7C
:100FD000406F900030E0701E900032E0701890007A
:100FE00040E0700B90003F7406F07F0202113690D3
:100FF00000307401F022900030E064017011900024
:1010000032E0700B90003F7409F0E4FF021136905B
:101010000030E06401700B900032E0640170030264
:1010200010A3900030E06003021139900032E064B8
:1010300001600302113990003F740AF0E4FF0211CD
:1010400036900037E0FEA3E0FF90002AE0FCA3E02A
:10105000FDD39FEC9E506A900033E0FEA3E0FFC3F7
:10106000ED9FEC9E405BE4FF121B4D900030E0FFD3
:101070007E00700C900032E0700690003F04F02279
:10108000EF64014E700D900032E0700790003F74E5
:1010900009F022900030E06401700B900032E064AF
:1010A000017003021F4C900030E060030211399080
:1010B0000032E06401600302113990003F740AF0CD
:1010C00022900033E0FEA3E0FFC390002BE09F904E
:1010D000002AE09E5063E4900030F0E07010900031
:1010E00032E0700A90003F740BF0E4FF80489000FB
:1010F00030E064017010900032E0700A90003F749C
:1011000009F0E4FF8030900030E06401701290003C
:1011100032E06401700A90003F7405F07F01801690
:10112000900030E07013900032E06401700B90008A
:101130003F740AF0E4FF121B4D22FB900000E09088
:101140000092F0900090EDF090008FEFF0FDE490B1
:101150000093F0A3F0EB24E0900093F0EDD3947FA4
:1011600074809480400AE490008FF0A3E02402F0A1
:10117000900092E0700302120F90008FE0FFA3E056
:10118000FD1220D7E4900094F0900094E0FFC39407
:101190000874809480502B900093E075F010A42F79
:1011A000F582E435F0F583E58224E7F582E58334C2
:1011B00024F583E493F4FF1221A0900094E004F05E
:1011C00080C790008FE0FFA3E004FD1220D7E490D9
:1011D0000094F0900094E0FFC394087480948040E1
:1011E000030212A0900093E075F010A42FF582E4A2
:1011F00035F0F583E58224EFF582E5833424F58329
:10120000E493F4FF1221A0900094E004F080C490D5
:10121000008FE0FFA3E0FD1220D7E4900094F0904F
:101220000094E0FFC3940874809480502A90009347
:10123000E075F010A42FF582E435F0F583E5822403
:10124000E7F582E5833424F583E493FF1221A0902F
:101250000094E004F080C890008FE0FFA3E004FD5C
:101260001220D7E4900094F0900094E0FFC394081B
:1012700074809480502A900093E075F010A42FF5AC
:1012800082E435F0F583E58224EFF582E5833424AA
:10129000F583E493FF1221A0900094E004F080C84D
:1012A00022900081EEF0A3EFF0A3ECF0A3EDF0A309
:1012B000EBF0A3EAF0A3E9F0E490008CF012000E4A
:1012C000EF75F008A4FFC374809FFFE495F0C3138B
:1012D000FEEF13FF900081EEF0A3EFF090008AEE96
:1012E000F0A3EFF0900085E0FBA3E0FAA3E0F91291
:1012F0000B47FF70030213DF90008CE060030213C2
:1013000095D3900082E09480900081E094004003A7
:101310000213DFEF948074809480400890008C74F6
:1013200001F080C0900085E0FBA3E0FAA3E0F91291
:101330000B47FB640D702D900088E0FF900084E067
:101340002FF0900083E03400F090008AE0FFA3E0EB
:10135000900081CFF0A3EFF0900086E475F00112C9
:101360000BD58024900081A3E0FFA3A3E0FD9000B3
:101370008912113E900088E0C313FF900082E02F95
:10138000F0900081E03400F0900086E475F00112E6
:101390000BD50212E4900081E0FEA3E0FFD394801D
:1013A000EE9400503AE490008CF0900083E0FCA3AF
:1013B000E0FDA3E0FBA3E0FAA3E0900089120DBCDE
:1013C000900086E475F002120BD5900088E0FF9043
:1013D0000082E02FF0900081E03400F00212E4225D
:1013E000900083ECF0A3EDF0A3EBF0A3EAF0A3E907
:1013F000F0900081EEF0A3EFF090008AEEF0A3EF02
:10140000F0E4A3F0A3F0A3F0900085E0FBA3E0FAE2
:10141000A3E0F9120B47FF700302150390008EE062
:1014200060030214B9D3900082E09480900081E0C0
:1014300094004003021503EF948074809480400868
:1014400090008E7401F080C0900085E0FBA3E0FA6C
:10145000A3E0F9120B47FB640D702D900088E0FFAC
:10146000900084E02FF0900083E03400F090008A38
:10147000E0FFA3E0900081CFF0A3EFF0900086E4BE
:1014800075F001120BD58024900081A3E0FFA3A387
:10149000E0FD90008912113E900088E0C313FF9098
:1014A0000082E02FF0900081E03400F0900086E4AC
:1014B00075F001120BD5021408900081E0FEA3E044
:1014C000FFD39480EE9400503AE490008EF09000A8
:1014D00083E0FCA3E0FDA3E0FBA3E0FAA3E090001F
:1014E00089120DBC900086E475F002120BD59000B5
:1014F00088E0FF900082E02FF0900081E03400F05F
:1015000002140822C0E0C083C082C0D0900026E050
:1015100004F0900008E004F0E0D394C87480948054
:101520004002E4F090003BE004F0E0C39464748077
:101530009480400590002CE4F0900016E004F070D8
:1015400006900015E004F0D3900016E0942090007F
:1015500015E0944E4004E4F0A3F090000DE004F098
:10156000700690000CE004F0D390000DE094A09081
:10157000000CE094004005900009E4F0900021E0A8
:1015800004F07006900020E004F0D3900021E09475
:10159000A0900020E094004005900014E4F090003A
:1015A0002EE004F0700690002DE004F0D390002EA1
:1015B000E0940C90002DE09400400590001FE4F0B2
:1015C000900036E004F07006900035E004F0D3900F
:1015D0000036E09420900035E0944E4004E4F0A3FF
:1015E000F0900026E0D39427748094804026E4F0A5
:1015F00090001EE004F0E0D3943B7480948040148B
:10160000E4F0900023E004F0E0D3943B74809480F5
:101610004002E4F0758C3C758AB0D0D0D082D08383
:10162000D0E03290003AE0FF900003E07004A3E0C5
:101630006401600302173874442FF582E43400F526
:1016400083E0FE74412FF582E43400F583E0FD6E03
:10165000600302172D74472FF582E43400F583E010
:10166000FEED6E600302172D74452FF582E4340001
:10167000F583E0FE74422FF582E43400F583E0FD4B
:101680006E600302172D74482FF582E43400F58351
:10169000E0FEED6E600302172D74462FF582E434F0
:1016A00000F583E0FE74432FF582E43400F583E017
:1016B000FD6E707974492FF582E43400F583E0FE05
:1016C000ED6E7069B2B690001F04F074412FF58280
:1016D000E43400F583E090000EF0FD7C0064CD70F2
:1016E0002A74422FF582E43400F583E0900017F06D
:1016F00074432FF582E43400F583E0900018F090F5
:1017000000097401F0E490000C801FED64EF4C7050
:101710001C74422FF582E43400F583E0900032F02F
:101720009000147401F0E4900020F0A3F0E4900025
:101730002CF0900003F0A3F022900081EFF0A3ECD6
:10174000F0A3EDF0A3EBF0A3EAF0A3E9F0E4A3F03B
:10175000A3F0A3F0900084E0FBA3E0FAA3E0F990EB
:101760000089E0F582758300120B60700302182671
:1017700024E0900087F0900081E0D3947874809406
:10178000804010E4F0900083E004F0700690008246
:10179000E004F09000811220D1E4900088F09000E5
:1017A00088E0FFC39408748094805025900087E0FF
:1017B00075F010A42FF582E435F0F583E58224E777
:1017C000F582E583342412219B900088E004F080A8
:1017D000CD900081E0FFA3A3E004FD1220D7E490A8
:1017E0000088F0900088E0FFC394087480948050D3
:1017F00025900087E075F010A42FF582E435F0F510
:1018000083E58224EFF582E583342412219B900046
:1018100088E004F080CD900081E02408F0900089F9
:10182000E004F00217542242001500004100240198
:10183000420017E90142002A00C8420001000A42A2
:10184000001204B0410000324100260041001E0099
:1018500041002300410008004100090042000C0043
:10186000004100140042002000004100300041000F
:10187000320041001F0042002D00004100110041D4
:10188000003F0141001B014100400041002F014287
:101890000033009642003702584100061E410039CD
:1018A00000420028000042003500004100220041B3
:1018B000001A0041000E00C10041002C0041003B15
:1018C00000410025004100310041001900410005A0
:1018D00000420003000041001D0042000A000041D8
:1018E000003A004100070048007820181127200026
:1018F0005002410080004100650000C0E0C083C08C
:1019000082C0D075D008309904C299C201209803D2
:101910000219BFC298900031E599F0E0FB645A705B
:1019200016900019E064AA700E90000504F0900073
:101930002CE00490003AF0900005E06401700F90F4
:10194000002CE02441F582E43400F583EBF09000B4
:101950002CE0D39404748094804045E0FF2441F54A
:1019600082E43400F583E0FE90001DF074402FF512
:1019700082E43400F583E0FD90000AE4F0A3EDF08A
:10198000EE64C3701B90000AE07004A3E064CC70A6
:101990000F900005F090002CF0900003F0A304F0ED
:1019A00090002CE004F0E0D3941E748094804002F8
:1019B000E4F0900031E0900019F090003BE4F0D0AA
:1019C000D0D082D083D0E032900081EFF0A3EDF050
:1019D000E490008CF090008AF0900087E0FF900087
:1019E0008AE0FEC39F4003021A8CC3EF9E14FD7F62
:1019F0000A12200FA804A905AA06AB07900083E0ED
:101A0000FCA3E0FDA3E0FEA3E0FF120C8CE47B0A44
:101A1000FAF9F8120C8C90008BEBF0A3E070389080
:101A20000087E014FF90008AE0FEC39F5029A3E0E6
:101A3000701F900088E0C3138EF0A4FF900081E037
:101A40002FFFA3E0FD900089E0900092F07B2080C2
:101A50002F90008C7401F0900088E0C313FF900079
:101A60008AE0FEEF8EF0A4FF900081E02FFFA3E05C
:101A7000FD90008BE02430FB900089E0900092F014
:101A800012114390008AE004F00219D92290001B41
:101A9000E0640170167BFF7A34799F90008874109F
:101AA000F0E4A3F0FDFCFFFE1213E090001AE0FF4B
:101AB0007E00700F90003C74ABF0A374CDF0E4A3F3
:101AC000F08018EF64014E701290003C74ABF0A3EC
:101AD00074EFF0900030E090003EF07FAA12000317
:101AE0007F5A120003E4FEEEC39403748094805086
:101AF00021E4FDEDC39403748094805012743C2D56
:101B0000F582E43400F583E0FF1200030D80E40E5B
:101B100080D57FCC1200037FC31200037F0F1222F7
:101B20004A90001AE07F0070027F0190001AEFF0E7
:101B3000A3E0640170167BFF7A33794590008874C6
:101B400010F0E4A3F0FDFCFFFE1213E022EFFD7C99
:101B5000007008D29290002404F022ED64014C70D1
:101B600017D3900016E09413900015E094005003F2
:101B7000021BF8B292E4804EEFFD7C0064027068B4
:101B8000900024E0FB7A0064017006D2927402F0A7
:101B900022EB64024A700EC2929000247403F0E4B7
:101BA0009000158021EB64034A701FD3900016E06B
:101BB000940B900015E094004010D2929000247491
:101BC00004F0E4900015F0A3F022900024E06404F7
:101BD0007026D3900016E0943B900015E0940040EE
:101BE000179000247401F022ED64034C700AC29235
:101BF0007F64FE122233D29222900037E0FEA3E0EF
:101C0000FFD390002BE09F90002AE09E40189000A8
:101C100030E0700D7F02121B4D90003F7402F08087
:101C20003F121F4C803A900037E0FEA3E0FF900087
:101C30002AE0FCA3E0FDD39FEC9E502A900033E005
:101C4000FEA3E0FFC3ED9FEC9E401B900030E070D0
:101C50000CFF121B4D90003F7401F08003121F4CCB
:101C6000E4900022F022900033E0FEA3E0FFC39056
:101C7000002BE09F90002AE09E5015900022E0701B
:101C8000047F018002E4FF121B4D90003F740BF0B3
:101C9000227F647E001221FC7FAE1221C17F0212DE
:101CA00021C17F101221C17F401221C17F811221E9
:101CB000C17FCF1221C17FA11221C17FC81221C1D2
:101CC0007FA61221C17FA81221C17F3F1221C17FAF
:101CD000D31221C1E4FF1221C17FD51221C17F801F
:101CE0001221C17FD91221C17FF11221C17FDA12E5
:101CF00021C17F121221C17FDB1221C17F4012213D
:101D0000C17F201221C17F021221C17F8D1221C10A
:101D10007F141221C17FA41221C17FA61221C17F8D
:101D2000AF1221C1022058E4900081F0FF0F7E35F0
:101D300012212F900040EFF07F027E3512212F906C
:101D40000011EFF07F037E3512212F900006EFF097
:101D50007F047E3512212F900081EFF07F057E35C4
:101D600012212F900037E4F0A3EFF0E0FE90008105
:101D7000E07C002400FFEC3E900037F0A3EFF07F02
:101D8000067E3512212F900081EFF07F077E3512FD
:101D9000212F900033E4F0A3EFF0E0FE900081E00B
:101DA0007C002400FFEC3E900033F0A3EFF07F08AE
:101DB0007E3512212F900007EFF022D2931220A03F
:101DC0007F01121B4D75BA807FC87E00122233122C
:101DD000221A7FC87E00122233121C917FC87E0017
:101DE0001222337BFF7A3379359000887410F0E447
:101DF000A3F07D01FC7F30FE1213E07BFF7A337984
:101E00003A7D047C007F201217397F207E03122246
:101E1000331220587FC87E001222331221DED2AC4A
:101E2000D2AF12225D7F147E0012223312162312CB
:101E30002157121FB41205B7120026900008E0C304
:101E4000940A7480948040DDE4F0121A8D80D67874
:101E50007FE4F6D8FD758120021E96021DBBE49337
:101E6000A3F8E493A34003F68001F208DFF480298D
:101E7000E493A3F85407240CC8C333C4540F44207C
:101E8000C8834004F456800146F6DFE4800B01026B
:101E9000040810204080901827E47E019360BCA3C2
:101EA000FF543F30E509541FFEE493A360010ECFB9
:101EB00054C025E060A840B8E493A3FAE493A3F8E3
:101EC000E493A3C8C582C8CAC583CAF0A3C8C582A3
:101ED000C8CAC583CADFE9DEE780BEE4FD900081A1
:101EE000F07F017E35122179900040E0FD7F017E78
:101EF00035122109900011E0FD7F027E3512210983
:101F0000900006E0FD7F037E35122109900037E046
:101F1000FEA3E0FDEEFF3395E0900081EFF07F043B
:101F20007E351221097F05122102900033E0FEA3C5
:101F3000E0FDEE900081F07F067E351221097F07DB
:101F40001221027DAB7F087E35022109D390003635
:101F5000E09427900035E094004034E4F0A3F09042
:101F6000002AE0FEA3E0FF2405FDE43EFCD3900040
:101F700029E09D900028E09C4007E4900039F08023
:101F800006900039E004F0900028EEF0A3EFF09006
:101F90000006E0FF900039E0C39F400C7F01121B58
:101FA0004D90003F7404F022E4FF121B4D90003F5F
:101FB0007405F022900009E0700790003F7407F06C
:101FC00022900014E0FF7E00700D900011E0700779
:101FD00090003F7403F022EF64014E7009900011ED
:101FE000E07003020FBD900014E06401700F9000D8
:101FF00011E06401700790003F7408F02290001413
:10200000E0700B900011E064017003121BF9229044
:10201000008DEFF0A3EDF0A3120D2A000000019057
:10202000008EE0FF14F0EF6020A3E0F8A3E0F9A336
:10203000E0FAA3E0FB90008DE0FFE4FCFDFE120C53
:102040000190008F120D1E80D690008FE0FCA3E05F
:10205000FDA3E0FEA3E0FF22E4900081F090008168
:10206000E0FFC394087480948050341221BD7F0235
:102070001221C17F101221C1E4900082F0900082F1
:10208000E0C3948074809480500DE4FF1221A090EE
:102090000082E004F080E6900081E004F080BE223F
:1020A000121D27900007E064AB6025E4900040F02B
:1020B000900011F0900006741EF09000377402F04A
:1020C000A37458F0900033E4F0A37496F0121EDB72
:1020D00022E0FFA3A3E0FD90009CEFF0E02402F0DB
:1020E000ED24B0FF1221C190009CE054F0C4540FC5
:1020F0004410FF1221C190009CE0540F4401FF02E4
:1021000021C1900081E0FD7E3575C78275C50290C2
:10211000000FEEF0A3EFF090000FE0F5C3A3E0F5A1
:10212000C4AF058FC275C65A75C6A50002227BE4EE
:10213000F5C275C78275C50190000FEEF0A3EFF0F0
:1021400090000FE0F5C3A3E0F5C475C65A75C6A5A7
:102150000012227BAFC222900018E0FF90002AE418
:10216000F0A3EFF0E0FE900017E07C002400FFEC0D
:102170003E90002AF0A3EFF02275C78275C5039048
:10218000000FEEF0A3EFF090000FE0F5C3A3E0F531
:10219000C475C65A75C6A50002227BF583E493FF79
:1021A00090009CEFF01222937F781222AE7F4012B3
:1021B00022B490009CE0FF1222B40222A5EF24B0CA
:1021C000FF90009DEFF01222937F781222AEE4FF81
:1021D0001222B490009DE0FF1222B40222A575984D
:1021E00050438E01438E0475D78F75D6FD438E10F4
:1021F000E490002CF0900027F0C20122D3EF94006D
:10220000EE940040147D6E7C00ED1D70011CED4CC1
:1022100070F7EF1F70E61E80E32290FE80E044809E
:10222000F0E04440F0E054C0F0E04408F090FE825A
:10223000E4F0227DD07C07ED1D70011C144C70F77A
:10224000EF1F70011E144E70EA22E4FEEEC39F5091
:102250000B7D187C55DCFEDDFC0E80F022758911AB
:10226000758C3C758AB0D2AFD2A9D28C2290FE86F2
:10227000EFF090FE817402F0022287E4F5C7F5C505
:10228000F5C6F5C3F5C42290FE82E030E6F9E054CD
:10229000BFF02290FE817401F002228790FE8174CB
:1022A00003F002228790FE817406F0022287122238
:1022B0006D02229C12226D02229C7E007F3F220032
:1022C00000000000000000002F00000000070007D1
:1022D0000000147F147F1400242A7F2A12006264F5
:1022E0000813230036495522500000050300000062
:1022F000001C224100000041221C000014083E087E
:10230000140008083E0808000000A060000008084B
:1023100008080800006060000000201008040200A7
:102320003E5149453E0000427F4000004261514914
:1023300046002141454B31001814127F10002745FB
:10234000454539003C4A49493000017109050300FF
:10235000364949493600064949291E0000363600EB
:10236000000000563600000008142241000014143A
:10237000141414000041221408000201510906003F
:10238000324959513E007C1211127C007F49494963
:1023900036003E41414122007F4141221C007F49DD
:1023A000494941007F09090901003E4149497A0034
:1023B0007F0808087F0000417F4100002040413F26
:1023C00001007F08142241007F40404040007F020E
:1023D0000C027F007F0408107F003E4141413E0017
:1023E0007F09090906003E4151215E007F09192934
:1023F000460046494949310001017F0101003F4043
:1024000040403F001F2040201F003F4038403F0019
:1024100063140814630007087008070061514945F8
:102420004300007F41410000552A552A55000041D4
:10243000417F00000402010204004040404040008F
:102440000001020400002054545478007F484444A2
:102450003800384444442000384444487F0038540D
:1024600054541800087E0901020018A4A4A47C009A
:102470007F080404780000447D4000004080847D93
:1024800000007F102844000000417F4000007C04D1
:10249000180478007C080404780038444444380068
:1024A000FC242424180018242418FC007C080404AC
:1024B0000800485454542000043F444020003C404D
:1024C00040207C001C2040201C003C4030403C0050
:1024D0004428102844001CA0A0A07C004464544C54
:1024E0004414141414141400000000000000000030
:1024F00000000000000000000000F80000000000E4
:102500000000333000000000100C06100C06000024
:102510000000000000000040C07840C07840000487
:102520003F04043F040400007088FC0830000000F1
:102530001820FF211E0000F008F000E01800000045
:10254000211C031E211E0000F00888700000001EE0
:102550002123241927211010160E0000000000006E
:1025600000000000000000000000E018040200006D
:102570000000071820400000020418E000000000DE
:1025800040201807000000404080F08040400002DA
:1025900002010F01020200000000F0000000000133
:1025A00001011F0101010000000000000000008087
:1025B000B0700000000000000000000000000000FB
:1025C0000101010101010100000000000000000004
:1025D000303000000000000000000080601804009F
:1025E0006018060100000000E010080810E000007C
:1025F0000F102020100F00001010F8000000000045
:1026000020203F202000000070080808887000008B
:10261000302824222130000030088888483000000B
:1026200018202020110E000000C02010F80000002B
:10263000070424243F240000F808888808080000C4
:1026400019212020110E0000E010888818000000D9
:102650000F112020110E0000380808C838080000AB
:1026600000003F000000000070880808887000002B
:102670001C222121221C0000E010080810E00000AC
:1026800000312222110F00000000C0C00000000035
:10269000000030300000000000008000000000005A
:1026A0000080600000000000008040201008000052
:1026B0000102040810200040404040404040000417
:1026C00004040404040400000810204080000000FA
:1026D00020100804020100007048080808F00000FB
:1026E00000003036010000C030C828E810E00007C4
:1026F00018272423140B000000C038E0000000203D
:102700003C23020227382008F888888870000020BF
:102710003F202020110E00C03008080808380007AC
:102720001820202010080008F808080810E00020F1
:102730003F202020100F0008F88888E808100020AB
:102740003F20202320180008F88888E8081000207F
:102750003F200003000000C03008080838000007D0
:10276000182020221E020008F808000008F808209F
:102770003F210101213F20000808F808080000005F
:1027800020203F2020000000000808F8080800C0B2
:102790008080807F00000008F888C028180800208A
:1027A0003F20012638200008F80800000000002023
:1027B0003F20202020300008F8F800F8F80800201A
:1027C0003F003F003F200008F830C00008F8082014
:1027D0003F200007183F00E01008080810E0000F35
:1027E00010202020100F0008F808080808F000202A
:1027F0003F210101010000E01008080810E0000F6F
:1028000018242438504F0008F888888888700020E1
:102810003F2000030C3020007088080808380000B2
:1028200038202121221C00180808F8080818000088
:1028300000203F2000000008F808000008F8080009
:102840001F202020201F000878880000C8380800BA
:102850000007380E010000F80800F80008F800032F
:102860003C0700073C0300081868808068180820AF
:10287000302C03032C30200838C800C8380800006A
:1028800000203F2000000010080808C83808002079
:1028900038262120201800000000FE02020200005D
:1028A00000007F40404000000C30C00000000000ED
:1028B0000000010638C00000020202FE0000000015
:1028C0004040407F000000000004020202040000BB
:1028D0000000000000000000000000000000008078
:1028E0008080808080808000020204000000000060
:1028F00000000000000000000080808080000000D8
:1029000019242222223F2008F800808000000000C5
:102910003F112020110E0000000080808000000088
:102920000E112020201100000000808088F8000097
:102930000E112020103F20000080808080000000C9
:102940001F222222221300008080F088888818002D
:1029500020203F2020000000008080808080000038
:102960006B94949493600008F800808080000020AD
:102970003F210000203F20008098980000000000C8
:1029800020203F20200000000000809898000000D8
:10299000C08080807F000008F800008080800020D8
:1029A0003F24022D302000000808F800000000003D
:1029B00020203F20200000808080808080800020B8
:1029C0003F20003F20003F8080008080800000206A
:1029D0003F210000203F2000008080808000000018
:1029E0001F202020201F00808000808000000080A9
:1029F000FFA12020110E00000000808080800000D8
:102A00000E112020A0FF8080808000808080002028
:102A1000203F212000010000008080808080000095
:102A200033242424241900008080E08080000000EA
:102A300000001F2020000080800000008080000037
:102A40001F202020103F2080808000008080800098
:102A5000010E300806010080800080008080800F19
:102A6000300C030C300F000080800080808000005C
:102A700020312E0E312000808080000080808080F8
:102A8000818E7018060100008080808080800000A8
:102A900021302C2221300000000000807C02020046
:102AA000000000003F404000000000FF0000000068
:102AB000000000FF0000000002027C800000000017
:102AC00040403F0000000000060101020204040033
:102AD0000000000000000004244484649C40300F87
:102AE000C808082818000010080601824C201806A3
:102AF00001061820408000BBB6404042CC0000FCDC
:102B0000040200FC0404FC00000040201F20404F91
:102B10004442407F4244434000D3AD0000000040A7
:102B2000301CFF1C304000000000000000000000CE
:102B30000000FF0000000000000000A1FC000000F9
:102B400000000000FF000000000000000000000086
:102B500000020C38FF380C020000000000C8000022
:102B60000000000040408C8C404000000000000449
:102B70000C1811322624242424263211180C04CBDC
:102B8000C4C0F0F0C08C3E7FC7E2B89C9C9C9C9077
:102B9000000019393939391D0FE3FF7C71030F0F1C
:102BA00003CEE5000000000018FEFEFEFE18000047
:102BB0000000000000000000183F3F3F3F18181EB3
:102BC000000000C1F900000004C40404FC82824239
:102BD0004200000000002020203F20201F10101085
:102BE0001010100000D5E600301010D254502FA85D
:102BF000EC0B08180800000000003C0505057F02EA
:102C000012221E00000000B3A3402010FC0300F8B5
:102C10008888F84444400000000000007F00203F06
:102C20001008630C1020780000B5CD00404020A0B3
:102C30006000FE20C02018000000002010080601DF
:102C400010207F0000030C08080000CBAE8040205D
:102C5000F80700A020211610D0100000000000008E
:102C60007F002020272018171010100000CEBB0076
:102C7000404424745C52D22A2A3A820200000000A6
:102C800020120A0513207F0102050810101000B160
:102C9000C3002020FF9000309070090A4898080077
:102CA000000202217F00202122223E11111010106B
:102CB00000BFD800A0989690FF48484000F800FF59
:102CC00000000000001E02027F09110F0013207F88
:102CD000000000D6C60000007C2412DE80BCA4D216
:102CE0009E800000000809057D4B253C00784926A0
:102CF0003C04040400C6F700808090909090FF8808
:102D000048484840000000201010080402017F00DD
:102D1000030C1010100000CEB40040422CE00068FC
:102D20005848F72424040000000008081B1412125D
:102D300022222F414141404000C1AC002020FF90A1
:102D4000508898E94A685C444000000202217F00F4
:102D5000424A56331A264242020000BDD300000008
:102D6000003C5454544A4A4E407000000000444411
:102D7000340C030202027F020202020000D2EC00C5
:102D800010909050D0107F88098A680800000010C9
:102D90001017140A2B2810090E11203C000000BB4C
:102DA000F200040404048444B40C0282820202008F
:102DB00000040402020100003F00000000010300C3
:102DC00000B2BB00000000BC2424E412129E80006C
:102DD000000000402018060908101F212140404033
:102DE000400000D7E3002020FF9010C04040FF20AB
:102DF00020E00000000212217F00007F22221F112C
:102E0000113F000000B3E90000F010101010FF881F
:102E1000888888F8000000000003010101017F009C
:102E200000000000000000D6D0004042CC0040442A
:102E30005454BFAAAA202000000000001F08007FF1
:102E400015150A2A7F00000000C7EB002020FF9024
:102E5000101808C8B986848C8480000212217F0073
:102E600041412728101C2340000000B0B40000009E
:102E700000F84848494A24243C000000004020183B
:102E800007007E22222211111F00000000C6F480DC
:102E900040F00C0304745455AABA828280000000EA
:102EA000007F0003010515257C020201000000CD12
:102EB000A32050CC2B08D0B080A8FF54547C100025
:102EC0000000021F4920140E11143F254541400007
:102ED00000BCFC0000180848982809F60404040CFB
:102EE000040000004042422222120E011111216111
:102EF000010000CAB50000F09088F8404040404012
:102F0000FF2020000000001F08080F00010610200D
:102F10007F00000000CAB10020428400FC04F202DD
:102F2000FE00F800FF00000818064120130C0304FF
:102F30001B0013207F0000B2E20000BC24F29E8040
:102F4000FC24241212F202000000101F100F0808C7
:102F50003F2222211111100000BEE0404042CC006F
:102F600040201C84829E20202000000000001F08BA
:102F70004421150816212040404000C9E800202EB9
:102F80002AAAAEAA7A5655D5171000000000404074
:102F9000407F55555555403F2020200000D6C300A6
:102FA00020A0FF5090E8BF94545CF7040400000494
:102FB00003007F00482B1A0A070D1564444000C423
:102FC000A3000020202020A0BFE012141010000059
:102FD0000000202011110F080801060810207800B9
:102FE00000CABD00000024242424FC929291908009
:102FF000800000000101010111217F00000000009C
:10300000000000CAD6000000F0909C93484808F8E1
:1030100000000000000000007F2424242212103F42
:103020000000000000D7D4004040C828242400201D
:10303000A07F10F000000000000E090445261806CD
:1030400011201807000000B6AF00040404745455A2
:10305000AAAABA82828202000000007F01011D1527
:10306000120A0E20403F000000B8DF0010109052FE
:103070005450D00CCB08E8080800000000007F0581
:1030800005207F000F207F00000000C7B000202037
:10309000FF9050007E2A2A919F800000000212219A
:1030A0007F40310F09111F222240404000CCE10037
:1030B000E43CE41CF202007C54D4223E00000000F8
:1030C0003F2514113F00444B4A3F2525200000D0E6
:1030D000D10020A0FF509040704F48502040400049
:1030E000000402017F0000424C41263827202000C6
:1030F00000BCEC0020428400FC04F202FE00F80058
:10310000FF00000818064120130C03041B001320C5
:103110007F0000B2E2000000202126E0909C939006
:10312000908000000000414121110D0302040810AD
:103130002020000000B9D800808080848484FC4274
:1031400042424240400000000000000010207F008A
:1031500000000000000000D3DA00808458C00000A6
:10316000FC54542A3E80000000101010131C202034
:103170002F2441424D40400000CDCB000000F8809C
:103180008080FF4040407C0000000000007C404008
:1031900040403F202020207E000000B3F6000404C1
:1031A000040404FC02424282820202000000000089
:1031B0000000007F000000000001000000CFC200FE
:1031C000000000000000808080808080800000007F
:1031D000010101010101000000000000000000D217
:1031E000BB000808F8040402E222DE1111F101001C
:1031F000000404040342422127180710102760002E
:1032000000CFEE0080808484FC424242FE42424075
:10321000400000004020100C030000007F00000070
:10322000000000BFAA004848FCA42220C03000FFD4
:1032300000902040000402017F0041212010080777
:103240000201000000C3EB002020A0BEAAAAA555E1
:1032500055DF10101000000000404F484A4A3F253B
:1032600025272020000000C1BF0020A21C10D08014
:10327000BCA09F50505E4000000008090407027E79
:10328000023E013F01217F0000B6CB000000F44464
:10329000444422223E0000000000000000001F20E5
:1032A000202020202020203C000000D2D100040457
:1032B00004C44424E40404FC0202020000000000F0
:1032C000000302010100207F0000000000BFC94090
:1032D00020F00C03D05050FF2828E8080000000020
:1032E000007F004023160A1711212140404000CAE8
:1032F000B9000000FC042424FC929202FE000000AD
:103300000040300E010001013F0000207F0000005E
:1033100000D3C3000000E0000000FF8080404000B8
:103320000000004040407F4040403F2020202020BF
:10333000200000D6B9BBB6D3AD0057454C434F4D26
:10334000452100C800202000CBC400C1F900CAD626
:10335000B6AF00D7D4B6AF0020202020CBAECEBB76
:10336000D5E6B3A320202020002020202020CBAEB3
:10337000CEBBB5CD202020202000CBAEB1C3BFD81E
:10338000D6C6C6F7CEB4C1ACBDD300CBAEB1C3D2A6
:10339000ECB3A3BBF2CBAEB2BBD7E300202020201E
:1033A000B3E9CBAED6D02E2E2E20202000C7EBB016
:1033B000B45BC6F42FCDA35DB3E9CBAE20002020D3
:1033C000B2E2C1BFB6CBCEB4C1ACBDD32020002089
:1033D000BFC9CAB9D3C3D7D4B6AFC4A3CABD20002E
:1033E00020CBAEB1C3C6F4B6AFD6D02E2E2E202041
:1033F0000020CBAEB1C3CDA3D6B9D6D02E2E2E2071
:1034000020002020202020CBAECEBBB8DF20202003
:10341000202000CAB5CAB1B2E2BEE03A00202D2D8C
:103420002D006D6D00C9E8D6C300C6F42FCDA300F2
:10343000C4A3CABD00312E20B8DFCBAECEBB006D19
:103440006D2000322E20B5CDCBAECEBB00332E206A
:10345000B3E9CBAEC7B0CCE1D0D12000BFAA00B950
:10346000D8002D00CFC2D2BBCFEE002B00342E20CF
:10347000D2ECB3A3BCECB2E22000C3EB00352E20AB
:10348000B9D82020D3DA2020202020202000362E7A
:1034900020CDCB2020B3F62020202020202000A10A
:0234A000FC002E
:00000001FF
