:1002E400013400012F00013200013E00012B000106
:1002F400290001380001210002250000012A000222
:10030400300000C100013600013A0001330001371A
:1003140000012C0001240002220000012E0002270B
:0503240000000139009A
:100344007D997C03ED1D70011C144C70F7EF1F7038
:06035400011E144E70EAC8
:01035A002280
:030023000200B226
:1000B200C0E0C0D075D008309904C299C20130980E
:1000C20071C298859937E537645A700EE52C64AA97
:1000D2007008752401E53604F539E52464017007DA
:1000E200743F2536F8A637D3E5369404748094809D
:1000F200402A743F2536F8E6F52E743E2536F8E69A
:10010200752700F528E52E64C37011E52864CC45F7
:10011200277009F524F536F5227523010536D3E556
:1001220036941E74809480400375360085372C7592
:070132003A00D0D0D0E0320A
:10032A00759850438E01438E0475D7E075D6FE4307
:0A033A008E10E4F536F535C20122FD
:080003002001FDD2018F9922BA
:10023400E4F510F511F512F513F514D294C296C233
:1002440097C2CCC2957FE87E03120344D296D2951E
:1002540012032AD2ACD2AF12000E120139E5216486
:10026400017026E52B7008C297C2CCD2958006D2C5
:1002740097D2CCC295E52A640170DF7F0AFE12038F
:1002840044120295E4F52A80D1C297C2CCD295805B
:01029400C9A0
:10029500C296753BEF852B3CE4F53D7FAA12000322
:1002A5007F5A120003FEEEC3940374809480501BA2
:1002B500E4FDEDC3940374809480500C743B2DF8D9
:1002C500E6FF1200030D80EA0E80DB7FCC120003EF
:0E02D5007FC31200037F0F7E00120344D296F7
:0102E30022F8
:10013900AF39E52364014522707774422FF8E6FE52
:10014900743F2FF8E6FD6E706174452FF8E66D7007
:100159005974432FF8E6FE74402FF8E6FD6E704A95
:1001690074462FF8E66D704274442FF8E6FE744128
:100179002FF8E6FD6E703374472FF8E66D702B7417
:100189003F2FF8E6F52974402FF8E6F538E529649C
:10019900AB7017E53864EF7011752101F525F52667
:1001A900752A0174412FF8E6F52BE4F522F523F5BC
:0101B900360F
:0101BA002222
:10000E00438E805389F0E4F58A758C28D2AFD2A93D
:03001E00D28C225F
:03000B000201BB34
:1001BB00C0E0C0D00534053ED3E53E94C8748094AE
:1001CB00804003753E00053AC3E53A94647480940D
:1001DB00804003753600D3E53494C8748094804016
:1001EB003D753400052F0526E52670020525D394B1
:1001FB001DE5259400400975250075260075210025
:10020B00D3E52F943B748094804013752F000532F7
:10021B00D3E532943B748094804003753200758A29
:09022B0000758C28D0D0D0E0321F
:03000000020026D5
:0C002600787FE4F6D8FD75815E02006D65
:10003200020234E493A3F8E493A34003F68001F2AE
:1000420008DFF48029E493A3F85407240CC8C333CF
:10005200C4540F4420C8834004F456800146F6DF9E
:10006200E4800B01020408102040809002E4E47E48
:10007200019360BCA3FF543F30E509541FFEE49393
:10008200A360010ECF54C025E060A840B8E493A35A
:10009200FAE493A3F8E493A3C8C582C8CAC583CA85
:1000A200F0A3C8C582C8CAC583CADFE9DEE780BE3D
:0103290000D3
:00000001FF
