:10000000021E2A2001FDD2018F99220214F2E4FF80
:10001000FE120B47600C0FEF70010E09E970F20A37
:1000200080EF2202181590001BE0640160030200BB
:10003000FD20963C7F0F12222520963420961C7BB3
:10004000FF7A3479009000687410F0A37401F07D99
:10005000067C00E4FFFE1213CE80E190001B7402C8
:10006000F090002214F01220337FC87E0012220E7E
:1000700020973D7F0F12222520973520971D7BFF6B
:100080007A3479059000687410F0A37401F07D064D
:100090007C007F2C7E001213CE80E0900030E07F49
:1000A0000070027F01900030EFF09000227401F0A8
:1000B00030CC030205B67F0F12222530CC03020597
:1000C000B620CC1D7BFF7A34790B9000687410F059
:1000D000A37401F07D067C007F5F7E001213CE804A
:1000E000E0900011E07F0070027F01900011EFF0BE
:1000F000E4900030F090002204F00205B390001B61
:10010000E06402600302039390002FE06401600347
:100110000201E92096497F0F122225209641209660
:100120001D7BFF7A34793D9000687410F0A3740150
:10013000F07D067C007F087E001213CE80E09000E8
:1001400034E024F6F0900033E034FFF0D3A3E094E1
:1001500032900033E094005006E4F0A37432F020B3
:10016000972E7F0F12222520972620971D7BFF7A3E
:1001700034793F9000687410F0A37401F07D067C20
:10018000007F287E001213CE80E090002F7402F0D2
:1001900020CC567F0F12222520CC4E20CC1D7BFF79
:1001A0007A3479469000687410F0A37401F07D06EB
:1001B0007C007F707E001213CE80E0900034E0243B
:1001C0000AF0900033E03400F0900037E0FEA3E046
:1001D000FFC3900034E09F900033E09E400BEF247B
:1001E000F6FFEE34FFF0A3EFF090002FE064026022
:1001F000030202CC2096557F0F12222520964D2017
:10020000961D7BFF7A34793D9000687410F0A374DA
:1002100001F07D067C007F087E001213CE80E09006
:100220000038E024F6F0900037E034FFF09000331F
:10023000E0FEA3E0FFD3900038E09F900037E09EFF
:10024000500AEF240AFFE43EF0A3EFF020972E7F40
:100250000F12222520972620971D7BFF7A34793FA5
:100260009000687410F0A37401F07D067C007F2874
:100270007E001213CE80E090002F7403F020CC4C4F
:100280007F0F12222520CC4420CC1D7BFF7A3479AD
:10029000469000687410F0A37401F07D067C007F26
:1002A000707E001213CE80E0900038E0240AF090B7
:1002B0000037E03400F0C3A3E094C4900037E0645A
:1002C00080948940077409F0A374C4F090002FE073
:1002D000640360030205B62096377F0F12222520A3
:1002E000962F20961D7BFF7A34793D90006874101C
:1002F000F0A37401F07D067C007F087E001213CE0F
:1003000080E0900040E07F0070027F01900040EFAD
:10031000F020973E7F0F12222520973620971D7BD5
:10032000FF7A34793F9000687410F0A37401F07D77
:10033000067C007F287E001213CE80E090002F7490
:1003400001F090001B7403F01220337FC87E00126E
:10035000220E30CC030205B67F0F12222530CC03CB
:100360000205B620CC1D7BFF7A3479469000687474
:1003700010F0A37401F07D067C007F707E001213E4
:10038000CE80E0900040E07F0070027F019000404E
:10039000EFF02290001BE0640360030205B69000BA
:1003A0002FE06401600302045520963A7F0F122269
:1003B0002520963220961D7BFF7A34793D90006887
:1003C0007410F0A37401F07D067C007F087E00129B
:1003D00013CE80E0900006E014F0E0D394647480C3
:1003E00094804002E4F020972E7F0F122225209760
:1003F0002620971D7BFF7A34793F9000687410F0B7
:10040000A37401F07D067C007F287E001213CE804D
:10041000E090002F7402F020CC3B7F0F12222520A9
:10042000CC3320CC1D7BFF7A347946900068741061
:10043000F0A37401F07D067C007F707E001213CE65
:1004400080E0900006E004F0E0D394637480948030
:1004500040037463F090002FE0640260030204E73D
:100460002096287F0F12222520962020961D7BFFA4
:100470007A34793D9000687410F0A37401F07D0621
:100480007C007F087E001213CE80E020972E7F0F25
:1004900012222520972620971D7BFF7A34793F90E2
:1004A00000687410F0A37401F07D067C007F287E44
:1004B000001213CE80E090002F7403F020CC287F30
:1004C0000F12222520CC2020CC1D7BFF7A347946C8
:1004D0009000687410F0A37401F07D067C007F70BA
:1004E0007E001213CE80E090002FE06403600302D0
:1004F00005B620963F7F0F12222520963720961DA5
:100500007BFF7A34793D9000687410F0A37401F099
:100510007D067C007F087E001213CE80E090001BD9
:100520007401F090002FF01220337FC87E00122259
:100530000E121EB620973D7F0F12222520973520E0
:10054000971D7BFF7A34793F9000687410F0A37494
:1005500001F07D067C007F287E001213CE80E090A3
:10056000002F7401F090001B04F01220337FC87E2E
:100570000012220E20CC3F7F0F12222520CC3720E4
:10058000CC1D7BFF7A3479469000687410F0A37418
:1005900001F07D067C007F707E001213CE80E0901B
:1005A000001B7401F090002FF01220337FC87E00F2
:1005B00012220E121EB62290001BE064016003029C
:1005C00007D390001FE064017BFF70067A33791E29
:1005D00080047A3379209000687410F0E4A3F0FD71
:1005E000FC7F08FE1213CE900009E064017BFF70CF
:1005F000067A33792380047A337920900068741066
:10060000F0E4A3F0FDFC7F18FE1213CE900014E07E
:1006100064017BFF70067A33792680047A3379206F
:100620009000687410F0E4A3F0FDFC7F30FE12131C
:10063000CE900011E064017BFF70067A3379298047
:10064000047A33792E9000687410F0E4A3F0FDFC76
:100650007F58FE1213CE90003FE0640170097BFFCB
:100660007A33793302070690003FE0640270097B19
:10067000FF7A33794402070690003FE06403700874
:100680007BFF7A337955807E90003FE064047008E8
:100690007BFF7A337966806E90003FE064057008D6
:1006A0007BFF7A337977805E90003FE064067008C4
:1006B0007BFF7A337988804E90003FE064077008B2
:1006C0007BFF7A337999803E90003FE064087008A0
:1006D0007BFF7A3379AA802E90003FE0640970088E
:1006E0007BFF7A3379BB801E90003FE0640A70087C
:1006F0007BFF7A3379CC800E90003FE0640B70175B
:100700007BFF7A3379DD9000687410F0E4A3F07D0C
:1007100002FCFFFE12128F7BFF7A3379EE900068A5
:100720007410F0E4A3F07D04FCFFFE1213CE9000E1
:1007300009E06401702790002AE0FEA3E0FFE4FCDA
:10074000FD900063120D0C9000677404F0A3741008
:10075000F0E4A3F07D047F481218E280187BFF7A52
:100760003379F89000687410F0E4A3F07D04FC7F06
:1007700048FE1213CE7BFF7A3379FD900068741027
:10078000F0E4A3F07D04FC7F68FE1213CE7BFF7AB9
:100790003479009000687410F0E4A3F07D06FCFF4B
:1007A000FE1213CE7BFF7A3479059000687410F046
:1007B000E4A3F07D06FC7F2CFE1213CE7BFF7A347F
:1007C000790B9000687410F0E4A3F07D06FC7F5F65
:1007D000020B4290001BE0640260030209FC9000DF
:1007E0002FE064017BFF7A347910900068704874C0
:1007F00010F0A37401F0E4FDFCFFFE1213CE900094
:1008000033E0FEA3E0FFE4FCFD900063120D0C90CA
:1008100000677404F0A37410F0A37401F0E4FD7F8A
:10082000481218E27BFF7A34791A9000687410F04D
:10083000A37401F0E480407410F0E4A3F0FDFCFF29
:10084000FE1213CE900033E0FEA3E0FFE4FCFD9027
:100850000063120D0C9000677404F0A37410F0E4B0
:10086000A3F0FD7F481218E27BFF7A34791A9000DA
:10087000687410F0E4A3F0FDFC7F68FE1213CE90C4
:10088000002FE064027BFF7A34791E900068705478
:100890007410F0A37401F07D027C00E4FFFE1213DB
:1008A000CE900037E0FEA3E0FFEE3395E0FDFC9034
:1008B0000063120D0C9000677404F0A37410F0A391
:1008C0007401F07D027F481218E27BFF7A34791AB6
:1008D0009000687410F0A37401F07D027C007F68C2
:1008E0007E00804B7410F0E4A3F07D02FCFFFE124A
:1008F00013CE900037E0FEA3E0FFEE3395E0FDFC61
:10090000900063120D0C9000677404F0A37410F053
:10091000E4A3F07D027F481218E27BFF7A34791A53
:100920009000687410F0E4A3F07D02FC7F68FE1272
:1009300013CE90002FE0640370407BFF7A34792857
:100940009000687410F0A37401F07D047C00E4FF53
:10095000FE1213CE900040E07BFF70067A347937A8
:1009600080047A34793A9000687410F0A37401F02E
:100970007D047C007F707E0080387BFF7A3479288C
:100980009000687410F0E4A3F07D04FCFFFE1213E5
:10099000CE900040E07BFF70067A34793780047A8D
:1009A00034793A9000687410F0E4A3F07D04FC7F81
:1009B00070FE1213CE7BFF7A34793D90006874107C
:1009C000F0E4A3F07D06FC7F08FE1213CE7BFF7AD5
:1009D00034793F9000687410F0E4A3F07D06FC7F4A
:1009E00028FE1213CE7BFF7A34794690006874108B
:1009F000F0E4A3F07D06FC7F70020B4290001BE048
:100A000064036003020B4690002FE064017BFF7AD1
:100A100034794890006870467410F0A37401F0E4D3
:100A2000FDFCFFFE1213CE900006E0FFE4FCFDFE8D
:100A3000900063120D0C9000677402F0A37410F024
:100A4000A37401F0E4FD7F601218E27BFF7A347931
:100A5000559000687410F0A37401F0E4803E7410A7
:100A6000F0E4A3F0FDFCFFFE1213CE900006E0FFC1
:100A7000E4FCFDFE900063120D0C9000677402F020
:100A8000A37410F0E4A3F0FD7F601218E27BFF7AFC
:100A90003479559000687410F0E4A3F0FDFC7F7089
:100AA000FE1213CE90002FE064027BFF7A34795857
:100AB000900068700E7410F0A37401F07D027C0049
:100AC000E480097410F0E4A3F07D02FCFFFE121331
:100AD000CE90002FE064037BFF7A34796990006840
:100AE000700E7410F0A37401F07D047C00E48009A2
:100AF0007410F0E4A3F07D04FCFFFE1213CE7BFF24
:100B00007A34793D9000687410F0E4A3F07D06FC1F
:100B10007F08FE1213CE7BFF7A34793F9000687411
:100B200010F0E4A3F07D06FC7F28FE1213CE7BFFBD
:100B30007A3479469000687410F0E4A3F07D06FCE6
:100B40007F70FE1213CE22BB010689828A83E022C7
:100B50005002E722BBFE02E32289828A83E49322C9
:100B6000BB010CE58229F582E5833AF583E022504A
:100B700006E92582F8E622BBFE06E92582F8E22294
:100B8000E58229F582E5833AF583E49322C2D5EC28
:100B900030E709B2D5E4C39DFDE49CFCEE30E715D7
:100BA000B2D5E4C39FFFE49EFE120D55C3E49DFD44
:100BB000E49CFC8003120D5530D507C3E49FFFE48D
:100BC0009EFE22C5F0F8A3E028F0C5F0F8E58215F6
:100BD0008270021583E038F022A3F8E0C5F025F01A
:100BE000F0E582158270021583E0C838F0E822E84B
:100BF0008FF0A4CC8BF0A42CFCE98EF0A42CFC8A02
:100C0000F0EDA42CFCEA8EF0A4CDA8F08BF0A42D7E
:100C1000CC3825F0FDE98FF0A42CCD35F0FCEB8E1F
:100C2000F0A4FEA9F0EB8FF0A4CFC5F02ECD39FED5
:100C3000E43CFCEAA42DCE35F0FDE43CFC2275F04A
:100C400008758200EF2FFFEE33FECD33CDCC33CCD1
:100C5000C58233C5829BED9AEC99E58298400CF5EC
:100C600082EE9BFEED9AFDEC99FC0FD5F0D6E4CE1A
:100C7000FBE4CDFAE4CCF9A88222B800C1B900594E
:100C8000BA002DEC8BF084CFCECDFCE5F0CBF9781B
:100C900018EF2FFFEE33FEED33FDEC33FCEB33FBAF
:100CA00010D703994004EB99FB0FD8E5E4F9FA2239
:100CB0007818EF2FFFEE33FEED33FDEC33FCC93334
:100CC000C910D7059BE99A4007EC9BFCE99AF90FFC
:100CD000D8E0E4C9FAE4CCFB2275F010EF2FFFEE68
:100CE00033FEED33FDCC33CCC833C810D7079BECB3
:100CF0009AE899400AED9BFDEC9AFCE899F80FD52B
:100D0000F0DAE4CDFBE4CCFAE4C8F922ECF0A3ED90
:100D1000F0A3EEF0A3EFF022A8828583F0D083D079
:100D200082120D2F120D2F120D2F120D2FE473E4CE
:100D300093A3C583C5F0C583C8C582C8F0A3C58386
:100D4000C5F0C583C8C582C822A42582F582E5F016
:100D50003583F58322BC000BBE0029EF8DF084FFA4
:100D6000ADF022E4CCF875F008EF2FFFEE33FEEC87
:100D700033FCEE9DEC984005FCEE9DFE0FD5F0E9AE
:100D8000E4CEFD22EDF8F5F0EE8420D21CFEADF0AD
:100D900075F008EF2FFFED33FD4007985006D5F0B2
:100DA000F222C398FD0FD5F0EA22F9E0900076F028
:100DB00090006FEEF0A3EFF0A3ECF0A3EDF0A3EB47
:100DC000F0A3EAF0A3E9F0122295900079EEF0A3E7
:100DD000EFF0E4900077F0A3F0900079E0FEA3E05C
:100DE000FF900077E0FCA3E0FDC39FEC9E40030270
:100DF0000FAA900073E0FBA3E0FAA3E0F9120B47FF
:100E0000FF902AD275F022ED120D49EC75F022A464
:100E10002583F583E4936F6003020F96900001121F
:100E20000B60FF900077A3E0902AD375F022120D9B
:100E300049EC75F022A42583F583E4936F600302E7
:100E40000F96900076E06003020EF190006FA3E031
:100E5000FFA3A3E0FD1220B2E490007BF090007BA2
:100E6000E0FFC39410748094805031900077E0FCD0
:100E7000A3E0902AB275F022120D49EC75F022A47D
:100E80002583F583E5822FF582E43583F583E493AA
:100E9000FF12217B90007BE004F080C190006FA3E3
:100EA000E0FFA3A3E004FD1220B2E490007BF090E9
:100EB000007BE0FFC39410748094804003020F967F
:100EC000900077E0FCA3E0902AC275F022120D4951
:100ED000EC75F022A42583F583E5822FF582E435B5
:100EE00083F583E493FF12217B90007BE004F08084
:100EF000BE90006FA3E0FFA3A3E0FD1220B2E49038
:100F0000007BF090007BE0FFC394107480948050CD
:100F100032900077E0FCA3E0902AB275F022120D27
:100F200049EC75F022A42583F583E5822FF582E450
:100F30003583F583E493F4FF12217B90007BE0047A
:100F4000F080C090006FA3E0FFA3A3E004FD122097
:100F5000B2E490007BF090007BE0FFC394107480BB
:100F600094805032900077E0FCA3E0902AC275F0A4
:100F700022120D49EC75F022A42583F583E5822F1A
:100F8000F582E43583F583E493F4FF12217B90002E
:100F90007BE004F080C0900078E004F06003020D74
:100FA000D9900077E004F0020DD922900037E0FEDE
:100FB000A3E0FFD390002BE09F90002AE09E406FBB
:100FC000900030E0701E900032E07018900040E019
:100FD000700B90003F7406F07F02021124900030E5
:100FE0007401F022900030E064017011900032E052
:100FF000700B90003F7409F0E4FF02112490003060
:10100000E06401700B900032E06401700302109103
:10101000900030E06003021127900032E06401602C
:101020000302112790003F740AF0E4FF021124909C
:101030000037E0FEA3E0FF90002AE0FCA3E0FDD330
:101040009FEC9E506A900033E0FEA3E0FFC3ED9F4B
:10105000EC9E405BE4FF121B28900030E0FF7E0016
:10106000700C900032E0700690003F04F022EF64B4
:10107000014E700D900032E0700790003F7409F04F
:1010800022900030E06401700B900032E064017047
:1010900003021F27900030E0600302112790003206
:1010A000E06401600302112790003F740AF022906F
:1010B0000033E0FEA3E0FFC390002BE09F90002AE6
:1010C000E09E5063E4900030F0E07010900032E059
:1010D000700A90003F740BF0E4FF8048900030E00D
:1010E00064017010900032E0700A90003F7409F0C3
:1010F000E4FF8030900030E064017012900032E034
:101100006401700A90003F7405F07F018016900022
:1011100030E07013900032E06401700B90003F7477
:101120000AF0E4FF121B2822FB900000E0900072FE
:10113000F0900070EDF090006FEFF0FDE490007320
:10114000F0A3F0EB24E0900073F0EDD3947F748073
:101150009480400AE490006FF0A3E02402F0900035
:1011600072E070030211FD90006FE0FFA3E0FD123A
:1011700020B2E4900074F0900074E0FFC39408740F
:10118000809480502B900073E075F010A42FF582AE
:10119000E435F0F583E58224C2F582E5833424F555
:1011A00083E493F4FF12217B900074E004F080C785
:1011B00090006FE0FFA3E004FD1220B2E490007401
:1011C000F0900074E0FFC3940874809480400302A0
:1011D000128E900073E075F010A42FF582E435F0C4
:1011E000F583E58224CAF582E5833424F583E4930C
:1011F000F4FF12217B900074E004F080C490006F33
:10120000E0FFA3E0FD1220B2E4900074F0900074BF
:10121000E0FFC3940874809480502A900073E075B6
:10122000F010A42FF582E435F0F583E58224C2F5B1
:1012300082E5833424F583E493FF12217B900074CC
:10124000E004F080C890006FE0FFA3E004FD1220EE
:10125000B2E4900074F0900074E0FFC394087480CE
:101260009480502A900073E075F010A42FF582E46A
:1012700035F0F583E58224CAF582E5833424F583CD
:10128000E493FF12217B900074E004F080C8229068
:101290000061EEF0A3EFF0A3ECF0A3EDF0A3EBF010
:1012A000A3EAF0A3E9F0E490006CF012000EEF75F1
:1012B000F008A4FFC374809FFFE495F0C313FEEF12
:1012C00013FF900061EEF0A3EFF090006AEEF0A340
:1012D000EFF0900065E0FBA3E0FAA3E0F9120B4702
:1012E000FF70030213CD90006CE06003021383D300
:1012F000900062E09480900061E09400400302134B
:10130000CDEF948074809480400890006C7401F05C
:1013100080C0900065E0FBA3E0FAA3E0F9120B4760
:10132000FB640D702D900068E0FF900064E02FF0EA
:10133000900063E03400F090006AE0FFA3E09000CA
:1013400061CFF0A3EFF0900066E475F001120BC3DB
:101350008024900061A3E0FFA3A3E0FD9000691248
:10136000112C900068E0C313FF900062E02FF09012
:101370000061E03400F0900066E475F001120BC3E8
:101380000212D2900061E0FEA3E0FFD39480EE94BD
:1013900000503AE490006CF0900063E0FCA3E0FDA4
:1013A000A3E0FBA3E0FAA3E0900069120DAA90006D
:1013B00066E475F002120BC3900068E0FF900062D3
:1013C000E02FF0900061E03400F00212D222900091
:1013D00063ECF0A3EDF0A3EBF0A3EAF0A3E9F09047
:1013E0000061EEF0A3EFF090006AEEF0A3EFF0E4FE
:1013F000A3F0A3F0A3F0900065E0FBA3E0FAA3E064
:10140000F9120B47FF70030214F190006EE06003C5
:101410000214A7D3900062E09480900061E09400F1
:1014200040030214F1EF948074809480400890008F
:101430006E7401F080C0900065E0FBA3E0FAA3E0C9
:10144000F9120B47FB640D702D900068E0FF9000CF
:1014500064E02FF0900063E03400F090006AE0FF59
:10146000A3E0900061CFF0A3EFF0900066E475F088
:1014700001120BC38024900061A3E0FFA3A3E0FD51
:1014800090006912112C900068E0C313FF90006275
:10149000E02FF0900061E03400F0900066E475F019
:1014A00001120BC30213F6900061E0FEA3E0FFD32C
:1014B0009480EE9400503AE490006EF0900063E067
:1014C000FCA3E0FDA3E0FBA3E0FAA3E09000691217
:1014D0000DAA900066E475F002120BC3900068E05C
:1014E000FF900062E02FF0900061E03400F0021302
:1014F000F622C0E0C083C082C0D0900026E004F095
:10150000900008E004F0E0D394C874809480400216
:10151000E4F090003BE004F0E0C3946474809480B5
:10152000400590002CE4F0900016E004F070069066
:101530000015E004F0D3900016E09420900015E030
:10154000944E4004E4F0A3F090000DE004F0700627
:1015500090000CE004F0D390000DE094A090000CFB
:10156000E094004005900009E4F0900021E004F0D0
:101570007006900020E004F0D3900021E094A09049
:101580000020E094004005900014E4F090002EE06C
:1015900004F0700690002DE004F0D390002EE0944B
:1015A0000C90002DE09400400590001FE4F09000A6
:1015B00036E004F07006900035E004F0D390003679
:1015C000E09420900035E0944E4004E4F0A3F090C5
:1015D0000026E0D39427748094804026E4F09000A5
:1015E0001EE004F0E0D3943B748094804014E4F057
:1015F000900023E004F0E0D3943B74809480400298
:10160000E4F0758C3C758AB0D0D0D082D083D0E025
:101610003290003AE0FF900003E07004A3E0640120
:10162000600302172674442FF582E43400F583E04A
:10163000FE74412FF582E43400F583E0FD6E600313
:1016400002171B74472FF582E43400F583E0FEEDAA
:101650006E600302171B74452FF582E43400F58396
:10166000E0FE74422FF582E43400F583E0FD6E6005
:101670000302171B74482FF582E43400F583E0FE63
:10168000ED6E600302171B74462FF582E43400F5FB
:1016900083E0FE74432FF582E43400F583E0FD6EB1
:1016A000707974492FF582E43400F583E0FEED6E25
:1016B0007069B2B690001F04F074412FF582E434D3
:1016C00000F583E090000EF0FD7C0064CD702A747C
:1016D000422FF582E43400F583E0900017F0744364
:1016E0002FF582E43400F583E0900018F0900009B3
:1016F0007401F0E490000C801FED64EF4C701C74DA
:10170000422FF582E43400F583E0900032F090003F
:10171000147401F0E4900020F0A3F0E490002CF0A9
:10172000900003F0A3F022900061EFF0A3ECF0A38F
:10173000EDF0A3EBF0A3EAF0A3E9F0E4A3F0A3F04B
:10174000A3F0900064E0FBA3E0FAA3E0F990006945
:10175000E0F582758300120B60700302181424E018
:10176000900067F0900061E0D3947874809480409A
:1017700010E4F0900063E004F07006900062E00472
:10178000F09000611220ACE4900068F0900068E0F6
:10179000FFC39408748094805025900067E075F032
:1017A00010A42FF582E435F0F583E58224C2F5829A
:1017B000E5833424122176900068E004F080CD9017
:1017C0000061E0FFA3A3E004FD1220B2E4900068F2
:1017D000F0900068E0FFC3940874809480502590D6
:1017E0000067E075F010A42FF582E435F0F583E58D
:1017F0008224CAF582E5833424122176900068E0C1
:1018000004F080CD900061E02408F0900069E004CD
:10181000F002174222C0E0C083C082C0D075D00859
:10182000309904C299C2012098030218D9C2989035
:101830000031E599F0E0FB645A7016900019E064FD
:10184000AA700E90000504F090002CE00490003A7D
:10185000F0900005E06401700F90002CE02441F549
:1018600082E43400F583EBF090002CE0D394047410
:101870008094804045E0FF2441F582E43400F58304
:10188000E0FE90001DF074402FF582E43400F583F3
:10189000E0FD90000AE4F0A3EDF0EE64C3701B904D
:1018A000000AE07004A3E064CC700F900005F09093
:1018B000002CF0900003F0A304F090002CE004F062
:1018C000E0D3941E748094804002E4F0900031E0F4
:1018D000900019F090003BE4F0D0D0D082D083D0BB
:1018E000E032900061EFF0A3EDF0E490006CF09036
:1018F000006AF0900067E0FF90006AE0FEC39F403E
:10190000030219A6C3EF9E14FD7F0A121FEAA80462
:10191000A905AA06AB07900063E0FCA3E0FDA3E0E5
:10192000FEA3E0FF120C7AE47B0AFAF9F8120C7AB3
:1019300090006BEBF0A3E07038900067E014FF902C
:10194000006AE0FEC39F5029A3E0701F900068E08A
:10195000C3138EF0A4FF900061E02FFFA3E0FD9081
:101960000069E0900072F07B20802F90006C740181
:10197000F0900068E0C313FF90006AE0FEEF8EF085
:10198000A4FF900061E02FFFA3E0FD90006BE02436
:1019900030FB900069E0900072F012113190006A03
:1019A000E004F00218F32242001500004100240177
:1019B000420017E90142002A00C8420001000A4221
:1019C000001204B0410000324100260041001E0018
:1019D00041002300410008004100090042000C00C2
:1019E000004100140042002000004100300041008E
:1019F000320041001F0042002D0000410011004153
:101A0000003F0141001B014100400041002F014205
:101A10000033009642003702584100061E4100394B
:101A20000042002800004200350000410022004131
:101A3000001A0041000E00C10041002C0041003B93
:101A4000004100250041003100410019004100051E
:101A500000420003000041001D0042000A00004156
:101A6000003A00410007000090001BE0640170167E
:101A70007BFF7A34797A9000687410F0E4A3F0FD6B
:101A8000FCFFFE1213CE90001AE0FF7E00700F9054
:101A9000003C74ABF0A374CDF0E4A3F08018EF64C5
:101AA000014E701290003C74ABF0A374EFF0900004
:101AB00030E090003EF07FAA1200037F5A1200032C
:101AC000E4FEEEC39403748094805021E4FDEDC3E2
:101AD0009403748094805012743C2DF582E4340099
:101AE000F583E0FF1200030D80E40E80D57FCC1259
:101AF00000037FC31200037F0F12222590001AE01B
:101B00007F0070027F0190001AEFF0A3E064017083
:101B1000167BFF7A3379209000687410F0E4A3F00C
:101B2000FDFCFFFE1213CE22EFFD7C007008D29266
:101B300090002404F022ED64014C7017D39000163D
:101B4000E09413900015E094005003021BD3B2926E
:101B5000E4804EEFFD7C0064027068900024E0FB9E
:101B60007A0064017006D2927402F022EB64024A99
:101B7000700EC2929000247403F0E490001580214E
:101B8000EB64034A701FD3900016E0940B9000158D
:101B9000E094004010D2929000247404F0E490008D
:101BA00015F0A3F022900024E064047026D3900086
:101BB00016E0943B900015E09400401790002474C8
:101BC00001F022ED64034C700AC2927F64FE12227F
:101BD0000ED29222900037E0FEA3E0FFD390002BBC
:101BE000E09F90002AE09E4018900030E0700D7F4A
:101BF00002121B2890003F7402F0803F121F2780C2
:101C00003A900037E0FEA3E0FF90002AE0FCA3E05A
:101C1000FDD39FEC9E502A900033E0FEA3E0FFC36B
:101C2000ED9FEC9E401B900030E0700CFF121B28D3
:101C300090003F7401F08003121F27E4900022F00F
:101C400022900033E0FEA3E0FFC390002BE09F90C2
:101C5000002AE09E5015900022E070047F0180026F
:101C6000E4FF121B2890003F740BF0227F647E007B
:101C70001221D77FAE12219C7F0212219C7F10126D
:101C8000219C7F4012219C7F8112219C7FCF1221B9
:101C90009C7FA112219C7FC812219C7FA612219CAF
:101CA0007FA812219C7F3F12219C7FD312219CE4AC
:101CB000FF12219C7FD512219C7F8012219C7FD90D
:101CC00012219C7FF112219C7FDA12219C7F12123B
:101CD000219C7FDB12219C7F4012219C7F201221BE
:101CE0009C7F0212219C7F8D12219C7F1412219CCB
:101CF0007FA412219C7FA612219C7FAF12219C02FF
:101D00002033E4900061F0FF0F7E3512210A90002D
:101D100040EFF07F027E3512210A900011EFF07F34
:101D2000037E3512210A900006EFF07F047E351203
:101D3000210A900061EFF07F057E3512210A9000A4
:101D400037E4F0A3EFF0E0FE900061E07C002400B7
:101D5000FFEC3E900037F0A3EFF07F067E351221B6
:101D60000A900061EFF07F077E3512210A90003360
:101D7000E4F0A3EFF0E0FE900061E07C002400FFBF
:101D8000EC3E900033F0A3EFF07F087E3512210A7D
:101D9000900007EFF022D29312207B7F01121B28C4
:101DA00075BA807FC87E0012220E1221F57FC87E90
:101DB0000012220E121C6C7FC87E0012220E7BFFC6
:101DC0007A3379109000687410F0E4A3F07D01FC80
:101DD0007F30FE1213CE7BFF7A3379157D047C00B1
:101DE0007F201217277F207E0312220E1220337FBE
:101DF000C87E0012220E1221B9D2ACD2AF12223804
:101E00007F147E0012220E121611122132121F8F21
:101E10001205B7120026900008E0C3940A7480945B
:101E20008040DDE4F0121A6880D6787FE4F6D8FDB1
:101E3000758120021E71021D96E493A3F8E493A31A
:101E40004003F68001F208DFF48029E493A3F854FC
:101E500007240CC8C333C4540F4420C8834004F47F
:101E600056800146F6DFE4800B0102040810204092
:101E7000809019A7E47E019360BCA3FF543F30E536
:101E800009541FFEE493A360010ECF54C025E06007
:101E9000A840B8E493A3FAE493A3F8E493A3C8C5D5
:101EA00082C8CAC583CAF0A3C8C582C8CAC583CAC6
:101EB000DFE9DEE780BEE4FD900061F07F017E3562
:101EC000122154900040E0FD7F017E351220E49005
:101ED0000011E0FD7F027E351220E4900006E0FD57
:101EE0007F037E351220E4900037E0FEA3E0FDEE94
:101EF000FF3395E0900061EFF07F047E351220E41F
:101F00007F051220DD900033E0FEA3E0FDEE90009F
:101F100061F07F067E351220E47F071220DD7DAB65
:101F20007F087E350220E4D3900036E094279000AD
:101F300035E094004034E4F0A3F090002AE0FEA3E2
:101F4000E0FF2405FDE43EFCD3900029E09D9000D5
:101F500028E09C4007E4900039F08006900039E0CA
:101F600004F0900028EEF0A3EFF0900006E0FF9060
:101F70000039E0C39F400C7F01121B2890003F7482
:101F800004F022E4FF121B2890003F7405F0229019
:101F90000009E0700790003F7407F022900014E001
:101FA000FF7E00700D900011E0700790003F7403F9
:101FB000F022EF64014E7009900011E07003020FEF
:101FC000AB900014E06401700F900011E0640170A8
:101FD0000790003F7408F022900014E0700B90000E
:101FE00011E064017003121BD42290006DEFF0A386
:101FF000EDF0A3120D180000000190006EE0FF1438
:10200000F0EF6020A3E0F8A3E0F9A3E0FAA3E0FB7F
:1020100090006DE0FFE4FCFDFE120BEF90006F12EC
:102020000D0C80D690006FE0FCA3E0FDA3E0FEA3C2
:10203000E0FF22E4900061F0900061E0FFC39408AB
:102040007480948050341221987F0212219C7F105A
:1020500012219CE4900062F0900062E0C3948074CE
:10206000809480500DE4FF12217B900062E004F028
:1020700080E6900061E004F080BE22121D02900014
:1020800007E064AB6025E4900040F0900011F09010
:102090000006741EF09000377402F0A37458F0909C
:1020A0000033E4F0A37496F0121EB622E0FFA3A35F
:1020B000E0FD90007CEFF0E02402F0ED24B0FF1290
:1020C000219C90007CE054F0C4540F4410FF122176
:1020D0009C90007CE0540F4401FF02219C90006121
:1020E000E0FD7E3575C78275C50290000FEEF0A346
:1020F000EFF090000FE0F5C3A3E0F5C4AF058FC289
:1021000075C65A75C6A500022256E4F5C275C78287
:1021100075C50190000FEEF0A3EFF090000FE0F511
:10212000C3A3E0F5C475C65A75C6A500122256AF02
:10213000C222900018E0FF90002AE4F0A3EFF0E044
:10214000FE900017E07C002400FFEC3E90002AF097
:10215000A3EFF02275C78275C50390000FEEF0A3C0
:10216000EFF090000FE0F5C3A3E0F5C475C65A7513
:10217000C6A500022256F583E493FF90007CEFF0A1
:1021800012226E7F781222897F4012228F90007C6B
:10219000E0FF12228F022280EF24B0FF90007DEF3B
:1021A000F012226E7F78122289E4FF12228F9000B3
:1021B0007DE0FF12228F022280759850438E0143EA
:1021C0008E0475D78F75D6FD438E10E490002CF0E9
:1021D000900027F0C20122D3EF9400EE9400401447
:1021E0007D6E7C00ED1D70011CED4C70F7EF1F70D3
:1021F000E61E80E32290FE80E04480F0E04440F060
:10220000E054C0F0E04408F090FE82E4F0227DD07B
:102210007C07ED1D70011C144C70F7EF1F70011E40
:10222000144E70EA22E4FEEEC39F500B7D187C55DD
:10223000DCFEDDFC0E80F022758911758C3C758A00
:10224000B0D2AFD2A9D28C2290FE86EFF090FE8160
:102250007402F0022262E4F5C7F5C5F5C6F5C3F5D0
:10226000C42290FE82E030E6F9E054BFF02290FEF6
:10227000817401F002226290FE817403F0022262F6
:1022800090FE817406F00222621222480222771226
:1022900022480222777E007F3F22000000000000DB
:1022A0000000002F000000000700070000147F144A
:1022B0007F1400242A7F2A12006264081323003648
:1022C0004955225000000503000000001C22410077
:1022D000000041221C000014083E08140008083EBB
:1022E0000808000000A060000008080808080000B6
:1022F00060600000002010080402003E5149453E85
:102300000000427F400000426151494600214145A2
:102310004B31001814127F10002745454539003C09
:102320004A494930000171090503003649494936D7
:1023300000064949291E00003636000000005636C6
:1023400000000008142241000014141414140000AA
:102350004122140800020151090600324959513E38
:10236000007C1211127C007F49494936003E4141F0
:102370004122007F4141221C007F49494941007FA1
:1023800009090901003E4149497A007F0808087F90
:102390000000417F4100002040413F01007F0814C0
:1023A0002241007F40404040007F020C027F007FBE
:1023B0000408107F003E4141413E007F09090906A3
:1023C000003E4151215E007F0919294600464949D6
:1023D00049310001017F0101003F4040403F001FA3
:1023E0002040201F003F4038403F00631408146322
:1023F00000070870080700615149454300007F410C
:10240000410000552A552A55000041417F00000433
:10241000020102040040404040400000010204006C
:10242000002054545478007F4844443800384444D1
:10243000442000384444487F00385454541800085D
:102440007E0901020018A4A4A47C007F080404787B
:102450000000447D4000004080847D00007F102803
:1024600044000000417F4000007C04180478007C98
:102470000804047800384444443800FC2424241818
:102480000018242418FC007C080404080048545454
:10249000542000043F444020003C4040207C001C6D
:1024A0002040201C003C4030403C00442810284480
:1024B000001CA0A0A07C004464544C4414141414C8
:1024C00014140000000000000000000000000000E4
:1024D0000000000000F800000000000000333000A1
:1024E000000000100C06100C0600000000000000A8
:1024F000000040C07840C0784000043F04043F041E
:102500000400007088FC08300000001820FF211E25
:102510000000F008F000E018000000211C031E215C
:102520001E0000F00888700000001E2123241927D7
:10253000211010160E000000000000000000000036
:102540000000000000E0180402000000000718204E
:10255000400000020418E0000000004020180700BE
:102560000000404080F0804040000202010F010264
:102570000200000000F0000000000101011F010145
:102580000100000000000000000080B070000000AA
:102590000000000000000000000000010101010136
:1025A00001010000000000000000003030000000C9
:1025B00000000000000080601804006018060100A0
:1025C000000000E010080810E000000F10202010AC
:1025D0000F00001010F8000000000020203F202015
:1025E00000000070080808887000003028242221AC
:1025F0003000003008888848300000182020201162
:102600000E000000C02010F8000000070424243F42
:10261000240000F8088888080800001921202011EB
:102620000E0000E0108888180000000F1120201113
:102630000E0000380808C83808000000003F0000FD
:1026400000000070880808887000001C22212122E8
:102650001C0000E010080810E000000031222211E8
:102660000F00000000C0C00000000000003030007B
:1026700000000000008000000000000080600000FA
:102680000000000080402010080000010204081033
:102690002000404040404040400004040404040442
:1026A00004000008102040800000002010080402F0
:1026B0000100007048080808F000000000303601F2
:1026C0000000C030C828E810E000071827242314B1
:1026D0000B000000C038E0000000203C230202276D
:1026E000382008F8888888700000203F20202011BA
:1026F0000E00C030080808083800071820202010F5
:10270000080008F808080810E000203F20202010EA
:102710000F0008F88888E8081000203F20202320B8
:10272000180008F88888E8081000203F20000300FF
:102730000000C03008080838000007182020221EBA
:10274000020008F808000008F808203F21010121D4
:102750003F20000808F8080800000020203F202043
:10276000000000000808F8080800C08080807F0092
:10277000000008F888C028180800203F20012638EB
:10278000200008F8080000000000203F2020202042
:10279000300008F8F800F8F80800203F003F003F3C
:1027A000200008F830C00008F808203F2000071873
:1027B0003F00E01008080810E0000F102020201053
:1027C0000F0008F808080808F000203F2101010167
:1027D0000000E01008080810E0000F18242438500A
:1027E0004F0008F8888888887000203F2000030C7C
:1027F0003020007088080808380000382021212285
:102800001C00180808F8080818000000203F2000E5
:10281000000008F808000008F808001F2020202009
:102820001F000878880000C83808000007380E012B
:102830000000F80800F80008F800033C0700073C17
:102840000300081868808068180820302C03032CC7
:1028500030200838C800C83808000000203F200099
:10286000000010080808C838080020382621202059
:102870001800000000FE020202000000007F40403D
:102880004000000C30C000000000000000010638CD
:10289000C00000020202FE000000004040407F0035
:1028A000000000000402020204000000000000001A
:1028B0000000000000000000000080808080808018
:1028C0008080000202040000000000000000000000
:1028D0000000000080808080000000192422222255
:1028E0003F2008F8008080000000003F11202011E8
:1028F0000E000000008080800000000E11202020CB
:102900001100000000808088F800000E11202010C7
:102910003F200000808080800000001F22222222B1
:102920001300008080F0888888180020203F202035
:1029300000000000808080808000006B949494935D
:10294000600008F8008080800000203F2100002007
:102950003F2000809898000000000020203F2020A9
:102960000000000000809898000000C08080807FF8
:10297000000008F8000080808000203F24022D30F5
:102980002000000808F8000000000020203F202060
:1029900000008080808080808000203F20003F20D9
:1029A000003F8080008080800000203F21000020C8
:1029B0003F200000808080800000001F2020202019
:1029C0001F00808000808000000080FFA120201177
:1029D0000E000000008080808000000E112020A0EA
:1029E000FF80808080008080800020203F212000A8
:1029F0000100000080808080800000332424242493
:102A00001900008080E0808000000000001F20206E
:102A100000008080000000808000001F2020201027
:102A20003F20808080000080808000010E300806FA
:102A3000010080800080008080800F300C030C300B
:102A40000F0000808000808080000020312E0E3139
:102A50002000808080000080808080818E70180639
:102A6000010000808080808080000021302C2221A5
:102A7000300000000000807C020200000000003FE7
:102A8000404000000000FF00000000000000FF00C8
:102A900000000002027C800000000040403F000077
:102AA0000000000601010202040400000000000012
:102AB000000004244484649C40300FC8080828188F
:102AC000000010080601824C20180601061820405C
:102AD0008000BBB6404042CC0000FC040200FC0475
:102AE00004FC00000040201F20404F4442407F4231
:102AF00044434000D3AD0000000040301CFF1C30B8
:102B000040000000000000000000000000FF000086
:102B1000000000000000A1FC00000000000000FF19
:102B2000000000000000000000000000020C38FF60
:102B3000380C020000000000C80000000000004047
:102B4000408C8C40400000000000040C181132261C
:102B500024242424263211180C04CBC4C0F0F0C065
:102B60008C3E7FC7E2B89C9C9C9C90000019393930
:102B700039391D0FE3FF7C71030F0F03CEE5000011
:102B800000000018FEFEFEFE18000000000000001D
:102B9000000000183F3F3F3F18181E000000C1F919
:102BA00000000004C40404FC8282424200000000D1
:102BB000002020203F20201F1010101010100000B7
:102BC000D5E600301010D254502FA8EC0B0818088E
:102BD00000000000003C0505057F0212221E0000D7
:102BE0000000B3A3402010FC0300F88888F8444498
:102BF000400000000000007F00203F1008630C1020
:102C000020780000B5CD00404020A06000FE20C02C
:102C1000201800000000201008060110207F00008E
:102C2000030C08080000CBAE804020F80700A0206D
:102C3000211610D0100000000000007F0020202787
:102C40002018171010100000CEBB00404424745C04
:102C500052D22A2A3A82020000000020120A0513EA
:102C6000207F0102050810101000B1C3002020FFD2
:102C70009000309070090A48980800000202217FF5
:102C800000202122223E111110101000BFD800A0F8
:102C9000989690FF48484000F800FF0000000000B0
:102CA0001E02027F09110F0013207F000000D6C60C
:102CB0000000007C2412DE80BCA4D29E80000000B4
:102CC0000809057D4B253C007849263C0404040096
:102CD000C6F700808090909090FF88484848400058
:102CE0000000201010080402017F00030C101010D7
:102CF0000000CEB40040422CE000685848F724247D
:102D0000040000000008081B14121222222F414167
:102D100041404000C1AC002020FF90508898E94A13
:102D2000685C444000000202217F00424A56331A88
:102D3000264242020000BDD3000000003C5454541F
:102D40004A4A4E4070000000004444340C03020222
:102D5000027F020202020000D2EC0010909050D0DC
:102D6000107F88098A6808000000101017140A2BC9
:102D70002810090E11203C000000BBF200040404DE
:102D8000048444B40C0282820202000004040202A1
:102D90000100003F0000000001030000B2BB000082
:102DA0000000BC2424E412129E8000000000402099
:102DB00018060908101F2121404040400000D7E3B9
:102DC000002020FF9010C04040FF2020E0000000C5
:102DD0000212217F00007F22221F11113F000000FC
:102DE000B3E90000F010101010FF88888888F80000
:102DF0000000000003010101017F0000000000004D
:102E00000000D6D0004042CC0040445454BFAAAA8F
:102E1000202000000000001F08007F15150A2A7FEF
:102E200000000000C7EB002020FF90101808C8B970
:102E300086848C8480000212217F00414127281063
:102E40001C2340000000B0B400000000F8484849CE
:102E50004A24243C0000000040201807007E222263
:102E60002211111F00000000C6F48040F00C030482
:102E7000745455AABA828280000000007F000301CA
:102E80000515257C020201000000CDA32050CC2BAB
:102E900008D0B080A8FF54547C10000000021F49E5
:102EA00020140E11143F254541400000BCFC0000D9
:102EB000180848982809F60404040C04000000408F
:102EC00042422222120E0111112161010000CAB5F5
:102ED0000000F09088F84040404040FF2020000073
:102EE00000001F08080F00010610207F00000000EE
:102EF000CAB10020428400FC04F202FE00F800FF88
:102F000000000818064120130C03041B0013207F47
:102F10000000B2E20000BC24F29E80FC24241212C5
:102F2000F202000000101F100F08083F222221119A
:102F300011100000BEE0404042CC0040201C8482C2
:102F40009E20202000000000001F084421150816C4
:102F5000212040404000C9E800202E2AAAAEAA7ACB
:102F60005655D51710000000004040407F5555557C
:102F700055403F2020200000D6C30020A0FF5090E5
:102F8000E8BF94545CF7040400000403007F004889
:102F90002B1A0A070D1564444000C4A3000020202A
:102FA0002020A0BFE012141010000000002020110B
:102FB000110F08080106081020780000CABD0000A3
:102FC0000024242424FC929291908080000000012F
:102FD00001010111217F0000000000000000CAD69D
:102FE000000000F0909C93484808F80000000000A2
:102FF0000000007F2424242212103F000000000063
:10300000D7D4004040C82824240020A07F10F0001E
:10301000000000000E0904452618061120180700BC
:103020000000B6AF00040404745455AAAABA828200
:103030008202000000007F01011D15120A0E2040CF
:103040003F000000B8DF00101090525450D00CCB5D
:1030500008E8080800000000007F0505207F000F39
:10306000207F00000000C7B0002020FF9050007EAD
:103070002A2A919F800000000212217F40310F090F
:10308000111F222240404000CCE100E43CE41CF24D
:1030900002007C54D4223E000000003F2514113F62
:1030A00000444B4A3F2525200000D0D10020A0FF3E
:1030B000509040704F485020404000000402017F73
:1030C0000000424C4126382720200000BCEC0020A4
:1030D000428400FC04F202FE00F800FF0000081821
:1030E000064120130C03041B0013207F0000B2E2F2
:1030F000000000202126E0909C939090800000002A
:1031000000414121110D030204081020200000009D
:10311000B9D800808080848484FC4242424240408E
:103120000000000000000010207F000000000000F0
:103130000000D3DA00808458C00000FC54542A3EBA
:1031400080000000101010131C20202F2441424D3D
:1031500040400000CDCB000000F8808080FF404060
:10316000407C0000000000007C404040403F2020A8
:1031700020207E000000B3F6000404040404FC02D6
:1031800042428282020200000000000000007F0034
:103190000000000001000000CFC20000000000009D
:1031A000008080808080808000000001010101019A
:1031B00001000000000000000000D2BB000808F879
:1031C000040402E222DE1111F101000004040403F0
:1031D000424221271807101027600000CFEE008020
:1031E000808484FC424242FE424240400000004053
:1031F00020100C030000007F000000000000BFAAA8
:10320000004848FCA42220C03000FF00902040006D
:103210000402017F00412120100807020100000084
:10322000C3EB002020A0BEAAAAA55555DF101010A0
:1032300000000000404F484A4A3F25252720200033
:103240000000C1BF0020A21C10D080BCA09F505025
:103250005E4000000008090407027E023E013F01B3
:10326000217F0000B6CB000000F444444422223EFB
:103270000000000000000000001F2020202020206F
:1032800020203C000000D2D100040404C44424E403
:103290000404FC020202000000000000030201011D
:1032A00000207F0000000000BFC94020F00C03D0C8
:1032B0005050FF2828E80800000000007F0040234D
:1032C000160A1711212140404000CAB9000000FC35
:1032D000042424FC929202FE0000000040300E0103
:1032E0000001013F0000207F00000000D3C3000068
:1032F00000E0000000FF80804040000000004040EF
:10330000407F4040403F2020202020200000D6B9B0
:10331000BBB6D3AD0057454C434F4D452100C800C7
:10332000202000CBC400C1F900CAD6B6AF00D7D464
:10333000B6AF0020202020CBAECEBBD5E6B3A32075
:10334000202020002020202020CBAECEBBB5CD20D9
:103350002020202000CBAEB1C3BFD8D6C6C6F7CE42
:10336000B4C1ACBDD300CBAEB1C3D2ECB3A3BBF2FE
:10337000CBAEB2BBD7E30020202020B3E9CBAED642
:10338000D02E2E2E20202000C7EBB0B45BC6F42F29
:10339000CDA35DB3E9CBAE20002020B2E2C1BFB621
:1033A000CBCEB4C1ACBDD320200020BFC9CAB9D395
:1033B000C3D7D4B6AFC4A3CABD200020CBAEB1C31F
:1033C000C6F4B6AFD6D02E2E2E20200020CBAEB124
:1033D000C3CDA3D6B9D6D02E2E2E2020002020205B
:1033E0002020CBAECEBBB8DF202020202000CAB5E5
:1033F000CAB1B2E2BEE03A00202D2D2D006D6D0065
:10340000C9E8D6C300C6F42FCDA300C4A3CABD002B
:10341000312E20B8DFCBAECEBB006D6D2000322E3A
:1034200020B5CDCBAECEBB00332E20B3E9CBAEC79B
:10343000B0CCE1D0D12000BFAA00B9D8002D00CF78
:10344000C2D2BBCFEE002B00342E20D2ECB3A3BCF3
:10345000ECB2E22000C3EB00352E20B9D82020D3F7
:10346000DA2020202020202000362E20CDCB202046
:0D347000B3F62020202020202000A1FC0029
:00000001FF
