:1005C900013900013200013700014700023B0000F8
:1005D900022D1234012C01012A00023500000129E3
:1005E90000013F0001210002250000012B00023318
:1005F900000002400000C100013D00014300013834
:1006090000013E00012F00012400022200000131F7
:0806190000022700000142006D
:10068F007DE87C03ED1D70011C144C70F7EF1F709B
:06069F00011E144E70EA7A
:0106A5002232
:0606B90000007F39DFFEA6
:0106BF002218
:0300230002040DC7
:10040D00C0E0C0D075D008309904C299C2013098AF
:10041D0071C29885993EE53E645A700EE52F64AA27
:10042D007008752401E53D04F542E524640170076B
:10043D007448253DF8A63ED3E53D94047480948020
:10044D00402A7448253DF8E6F5317447253DF8E618
:10045D00752700F528E53164C37011E52864CC4596
:10046D00277009F524F53DF522752301053DD3E5EA
:10047D003D941E748094804003753D00853E2F751C
:07048D004300D0D0D0E032A3
:10067500759850438E01438E0475D7C775D6FE43D2
:0A0685008E10E4F53DF53AC20122A3
:080003002001FDD2018F9922BA
:10051100E4F510F511F512F513F514D294C295C254
:10052100967FE87E0312068FD295D296120675D277
:10053100ACD2AF1206A612000E120494E52164019A
:100541007029C296D3E5419431E5409400400812E8
:100551000570E4F540F541E52B640170DC7F0AFE8E
:0F05610012068F120622E4F52B80CED29680CAA6
:10062200C2957544CD852D45852E467FAA120003BD
:100632007F5A120003E4FEEEC39403748094805048
:100642001BE4FDEDC3940374809480500C74442D1C
:10065200F8E6FF1200030D80EA0E80DB7FCC120069
:10066200037FC31200037F0F7E0012068FE4F52B77
:02067200D2951F
:010674002263
:10049400AF42E523640145227072744B2FF8E6FEE7
:1004A40074482FF8E6FD6E705A744E2FF8E66D709E
:1004B40052744C2FF8E6FE74492FF8E6FD6E704333
:1004C400744F2FF8E66D703B744D2FF8E6FE744AB6
:1004D4002FF8E6FD6E702C74502FF8E66D702474BE
:1004E400482FF8E6F52974492FF8E6F53FE5296425
:1004F400AB7010E53F64CD700A752101F525F52632
:0C050400752B01E4F522F523F53DC20043
:0105100022C8
:10000E00759108C292C293538910C28E7F647E008E
:03001E0002068F48
:10057000E4F58DF58BD2921206B9C2923093FDD27A
:100580008E2093FDC28EAC8DE412022EE4FBFA792C
:1005900080784312011EC004C005C006C007AC8BA2
:1005A000E412022ED003D002D001D00012002D7B25
:1005B000317A08792C783E12011E1202628E3B8F2E
:0905C0003C853C2DE53BF52E22A3
:1006A600538E7F5389F0758A78758CECD2AFD2A9B8
:0306B600D28C22C1
:03000B000202F1FD
:1002F100C0E0C0D005390547D3E54794C874809460
:100301008040037547000543C3E5439464748094BA
:10031100804003753D000541E54170020540D394DD
:1003210010E54094274006754000754100D3E5393A
:1003310094C874809480403D75390005320526E5E6
:100341002670020525D3941DE525940040097525E5
:1003510000752600752100D3E532943B74809480AA
:1003610040137532000537D3E537943B7480948090
:100371004003753700758A78758CECD0D0D0E032A7
:100026000202CEE86480F8E933E83360110460F038
:10003600ED33EC337009E8FCE9FDEAFEEBFF220440
:1000460060DED3EB9FEA9EE99DE8C2E78CF0C2F73B
:1000560095F0400CE8CCF8E9CDF9EACEFAEBCFFB07
:1000660012029985D0F05804700320D5B3E80470C5
:10007600075002B2D50202D892D5EC0460F7E4CC60
:10008600C0E0C398F8603B94186008400DD0E0FBD0
:100096000202B0E4FBFAC9FC8028E830E406E4C9B1
:1000A600FBE4CAFCE830E305E4C9CACBFCE8540724
:1000B6006010F8C3E913F9EA13FAEB13FBEC13FC2F
:1000C600D8F130F52FC3E49CFCEF9BFFEE9AFEEDD2
:1000D60099FDD0E0FBEF4E4D4C701222DB0302027D
:1000E600D5EC2CFCEF33FFEE33FEED33FDED30E7C0
:1000F600EB0202B0EF2BFFEE3AFEED39FDD0E0FB4E
:1001060050130BBB00030202D8ED13FDEE13FEEFF6
:0801160013FFEC13FC0202B020
:10011E00EC4D6011E8497017ED33EC3304600DE4DB
:10012E00FCFFFEFD22E933E8330470F80202CE1222
:10013E00029958046009E4CC248150062850090223
:10014E0002D82840030202D5C0E0EB4A7044B980C1
:10015E0006D0E0FB0202C4EF4E701CBD8008EBFF20
:10016E00EAFEE9FD80EBE98DF0A4FEE5F002020760
:10017E00E9CDF9EAFEEBFFEF89F0A4FCE5F0CE89BC
:10018E00F0A42EFFE435F0CD89F0A42DFEE435F079
:10019E008067EF4E7005BD80D780C3EF8BF0A4ACA7
:1001AE00F0EE8BF0A42CFCE435F0F8EF8AF0A42CE2
:1001BE00E5F038FCE433CB8DF0A42CFCE5F03BF8F5
:1001CE00EE8AF0A42CFCE5F038F8E433CF89F0A4E5
:1001DE002CFCE5F038CF3400CE89F0A42FFFE5F0EB
:1001EE003EFEE433C98DF0A42EFEE5F039CD8AF043
:1001FE00A42FFFE5F03EFEE43DFD33D0E0FB5007BB
:10020E000BBB000F0202D8EC2CFCEF33FFEE33FEDB
:06021E00ED33FD0202B009
:1002240075F020800E75F010800575F0087D007E55
:10023400007F003392D530D5031202E3EC33401033
:10024400EF33FFEE33FEED33FDEC33FCD5F0ED225E
:0E025400E5F0247EA2D513CC92E7CDCEFF229A
:10026200EDD2E7CD33EC3392D524814006E4FFFE94
:10027200FDFC22FCE4CFCECDCC24E0501174FF80F3
:10028200EDC3CC13CCCD13CDCE13CECF13CF047090
:07029200F030D5DE0202E3AB
:10029900E9D2E7C933E833F892D5EDD2E7CD33ECAB
:0702A90033FC5002B2D52224
:1002B000EC30E7100FBF000C0EBE00080DBD0004AF
:1002C0000BEB6014A2D5EB13FCED92E7FD2274FF5B
:1002D000FCFDFEFF22E480F8A2D574FF13FC7D80B4
:0302E000E480EFC8
:0300000002038177
:0C038100787FE4F6D8FD7581670203C8A0
:0E02E300C3E49FFFE49EFEE49DFDE49CFC222C
:10038D00020511E493A3F8E493A34003F68001F270
:10039D0008DFF48029E493A3F85407240CC8C33371
:1003AD00C4540F4420C8834004F456800146F6DF40
:1003BD00E4800B01020408102040809005C9E47E02
:1003CD00019360BCA3FF543F30E509541FFEE49335
:1003DD00A360010ECF54C025E060A840B8E493A3FC
:1003ED00FAE493A3F8E493A3C8C582C8CAC583CA27
:1003FD00F0A3C8C582C8CAC583CADFE9DEE780BEDF
:0106210000D8
:00000001FF
